:020000040800F2
:10400000D818012071600008415D0008435D000878
:10401000455D0008475D0008495D0008000000009C
:104020000000000000000000000000004B5D0008E0
:104030004D5D0008000000004F5D0008515D000864
:1040400085600008896000088D60000891600008A4
:104050009560000899600008D35C00089D60000826
:10406000A1600008A5600008AF5C0008A960000816
:10407000AD600008B1600008B5600008B9600008D4
:10408000BD600008C1600008C5600008C960000884
:10409000CD600008D1600008D5600008D960000834
:1040A000DD600008E1600008E5600008E9600008E4
:1040B000995C0008ED600008F1600008F5600008F8
:1040C000F9600008FD60000801610008C95A000895
:1040D00005610008096100080D6100081161000810
:1040E00015610008196100081D61000821610008C0
:1040F00025610008296100082D6100083161000870
:1041000035610008396100083D610008416100081F
:1041100045610008496100084D61000851610008CF
:1041200055610008596100085D610008616100087F
:1041300065610008696100086D610008716100082F
:10414000000000000000000000000000000000006F
:1041500075610008796100087D61000881610008CF
:1041600085610008896100088D610008916100087F
:1041700095610008996100089D61000810B410F075
:104180000703DFF8F84A22684FF6FF010A4052EAB7
:104190000322DFF8EC1A0A43226010BC70472DE9B5
:1041A000F041DFF8E00ADFF8E01A08600320FFF7CB
:1041B000E5FF00F023FE00F005FC00F0A0FC00F09D
:1041C0000DFC00F0E1FC00F0CBFD00F075FCDFF829
:1041D000BC0A0068DFF8B81A0870DFF8B85A287807
:1041E00000283CD000F0C9FB0120DFF8AC1A0870B1
:1041F000002028700020DFF8A41A08700020DFF8E3
:10420000A01A08700020DFF89C1A08700020DFF860
:10421000981A08700020DFF8941A08700020DFF860
:10422000901A08700020DFF88C1A08700020DFF860
:10423000881A08700020DFF8841A08700020DFF860
:10424000801A08700020DFF87C1A08600020DFF870
:10425000781A08600820DFF8741A087028E3DFF87D
:10426000381A0878002800F02081087801280ED13B
:10427000DFF85C0A4FF4807202604FF40072026053
:10428000022008700020DFF84C1A087010E308784C
:10429000022811D1DFF83C0A02780A2A0CDBDFF889
:1042A000382A4FF4807313604FF4007313600322B5
:1042B0000A7000210170FBE2087803280ED1DFF8B4
:1042C000140A02780A2A09DB4FF48072DFF8003AF8
:1042D0001A6004220A7000210170E9E208780428BB
:1042E0000ED1DFF8F0291078002809D04FF4807043
:1042F000DFF8E43918600520087000201070D7E25C
:104300000878052822D1DFF8CC2910780A281DDB8F
:10431000DFF8C8391878002818D10020DFF8C05914
:1043200028700020DFF8BC59287001201870DFF8D1
:10433000B80911230370002343700220DFF8AC3961
:1043400018700620087000201070B1E20878062866
:104350003DD1DFF88009DFF89829127803789A4276
:1043600035D2DFF878291378032B30D10023DFF81A
:1043700070592B700023DFF86C592B7001231370D8
:10438000DFF86429412313700B23537001239370CA
:104390006023D370CC2313710023537110239371C6
:1043A0001023D371102313721023537210239372AE
:1043B0001023D37210231373102353730F22DFF8CB
:1043C0002C391A7009220A700021017070E20878F5
:1043D000092834D1DFF8FC08DFF8142912780378B3
:1043E0009A422CD2DFF8F4281378032B27D100232C
:1043F000DFF8EC582B700023DFF8E8582B7001230E
:104400001370DFF8E8281123137000231C001378C1
:104410009C4205DA0023DFF8D0582B55641CF6E7E0
:10442000DFF8C428DFF8CC381B7853F02003137072
:104430000F2353700B220A700021017038E20878B4
:104440000A2823D1DFF88C08DFF8A4281278037833
:104450009A421BD2DFF884281378032B16D100234D
:10446000DFF87C582B700023DFF878582B7001237D
:1044700013701022DFF870381A700122DFF86C38E0
:104480001A700B220A700021017011E208780B28C3
:1044900040F00E82DFF844080278032A40F00882D8
:1044A000002202700020087002E2DFF84C783878B1
:1044B00000284BD03878012819D1DFF82018087867
:1044C000002814D10020DFF8182810700020DFF831
:1044D00014281070012008700820DFF80C180870EC
:1044E0000120DFF80818087002203870E0E1387801
:1044F000022840F0DD81DFF8E4070178032940F06D
:10450000D7810121DFF8942711700021DFF8EC2713
:104510001170DFF8D41712220A7001221400202C27
:1045200003DA00220A55641CF9E71421DFF8BC27DE
:1045300011701421DFF8A82711701421DFF8A427C7
:1045400011700021397000210170B1E1DFF8B0571E
:10455000287800282BD02878012819D1DFF87C177B
:104560000878002814D10020DFF87427107000208C
:10457000DFF870271070012008700A20DFF8681734
:1045800008700120DFF864170870022028708FE19E
:104590002878022840F08C81DFF840070178032951
:1045A00040F08681002129700021017080E1DFF850
:1045B000F466307800280AD000F0DFF90020DFF838
:1045C000DC160870002030700120287070E1DFF8E0
:1045D000CC66307800281ED0DFF820070178DFF89D
:1045E000EC261278914216D3002101700120DFF8E9
:1045F000141708700020DFF8E81608700020DFF8B4
:10460000E41608700020DFF8001708700120DFF8BA
:10461000CC1608704CE1DFF8EC160878002800F0A2
:10462000898000200870DFF8E4160878032802DA91
:104630000878401C08703078002800F0398108782C
:104640000328C0F23581DFF8C816DFF87C76DFF882
:104650007486D8F800203868121A0A6008680028A2
:1046600004D50A687FF0004082180A600420040024
:10467000142C29DA0868B0F5803F25DA201F0222C1
:1046800090FBF2F0DFF88C26105CDFF8342612780D
:10469000104217D0DFF88006DFF88026125DDFF8C1
:1046A0008036B0F800C003F80C200288521C02804B
:1046B000028802800868401C0860D8F80000401C8E
:1046C000C8F80000641CD3E70868B0F5803FC0F26A
:1046D000EF8000200400082C1FDADFF84816DFF80E
:1046E0003C0600EB44021279FF2300EB44004079C2
:1046F00003FB020221F8142031F9140000F082FCBF
:104700000022DFF8243600F0A3FC00F0C5FDDFF83E
:104710001C1641F82400641CDDE7386800F57F4072
:10472000FF30C8F80000002030700120287000F031
:1047300024F9BDE03078002840F0BA80DFF86055F9
:10474000287800281AD000F018F9002028700020DE
:10475000DFF8B81508700020DFF8D41508800020B5
:10476000DFF8B41508800020DFF858150860002035
:10477000DFF8541508600120387099E0DFF834152F
:104780000878002833D0DFF85425107800282ED17F
:10479000012010700020DFF8482510700020DFF89D
:1047A00044251070DFF84005DFF88825DFF8003574
:1047B0001B78D25C52F040020270002242700A78EC
:1047C000521E032392FBF3F503FB1522DFF8683535
:1047D0009A5C82700022C2700420DFF810251070ED
:1047E0000220DFF8D42410700020087060E0DFF8A9
:1047F000C8040178022909D1DFF8E0140A78032AF5
:1048000004D1002202700020087051E001780129D3
:1048100038D1DFF8C014DFF8D82412780B789A4228
:1048200030D2DFF8B8241378032B2BD10023DFF824
:10483000B0542B700023DFF8AC542B70012313709D
:10484000DFF8A8241123137000231C0013789C4266
:1048500009DA0023DFF890542B550023DFF8BC540D
:104860002B55641CF2E7DFF88024DFF888341B78CE
:1048700053F0200313700F235370022202700020A4
:10488000087015E0DFF834140878002810D0087894
:1048900000280BD00878062808DADFF8A0040A7888
:1048A000104410F8010CDFF8242410700020087068
:1048B000DFF83854DFF82C643078297888422BD21E
:1048C000DFF818743878022826D10121DFF8700447
:1048D00000F07CFD01281FD13078401C307030780A
:1048E000297888420FD14FF48050DFF858140860BF
:1048F0000020DFF814140870032038704FF40040D3
:10490000DFF844140860DFF844040088DFF80C1472
:104910003278114401F8010CDFF8EC63307800289C
:1049200004D1DFF8B8030078012804D0EB48007800
:1049300002287FF44CAC0221DFF8040400F046FDAD
:1049400001287FF444ACE64801782A789142BFF40C
:104950003EAC4FF48051DFF8F0231160E249027859
:10496000895CDFF8E82311800178491C017001207F
:1049700030700220D949087029E410B5DFF8C0432F
:104980008021200000F022FD0128F7D00121200025
:1049900000F01CFD012801D1EC4800880020DA4914
:1049A00008704FF48050E74908600020CC49087037
:1049B0000020CC4908700020CC4908700020C7496D
:1049C000087010BD80B5012141F20D0000F006FD18
:1049D000012144F2010000F00FFD01BD7CB5102063
:1049E000ADF8000048208DF8030002208DF8020089
:1049F000D74C6946200000F023FDA020ADF8000050
:104A000028208DF803006946200000F019FD4020A1
:104A1000ADF8000018208DF803006946200000F072
:104A20000FFD4FF42040ADF8000001208DF802008A
:104A300018208DF80300C74D6946280000F000FDDE
:104A40004FF480563000ADF8000010208DF80300C0
:104A50006946280000F0F4FC4FF48040ADF80000F7
:104A600028208DF803006946280000F0E9FC0120A9
:104A7000ADF8000048208DF803006946200000F0E2
:104A8000DFFC2020ADF8000048208DF803006946C7
:104A9000280000F0D5FC4FF44070ADF80000102065
:104AA0008DF8030001208DF802006946200000F017
:104AB000C7FCA448066073BDE0B50421002000F0E7
:104AC00034FD1020019000208DF8080008208DF89A
:104AD000090001208DF80A0001A800F051FD0A200C
:104AE0008DF8000001208DF8010001208DF80200F2
:104AF00001208DF80300684600F0A5FD07BDE0B574
:104B00004FF4A06000F09AFD23208DF800000320F0
:104B10008DF8010007208DF8020001208DF80300B8
:104B2000684600F090FD1C208DF8000000208DF8F4
:104B3000010000208DF8020001208DF80300684676
:104B400000F081FD0021002000F0EFFC0120019029
:104B500000208DF808000C208DF8090001208DF848
:104B60000A0001A800F00CFD06208DF800000120CD
:104B70008DF8010001208DF8020001208DF803005E
:104B8000684600F060FD07BD30B585B0684600F0AE
:104B9000E5FB0020ADF800000020ADF80400002087
:104BA000ADF806000120ADF808004FF40070ADF834
:104BB0000A000020ADF80E004FF48270ADF802003C
:104BC0002820ADF80C000720ADF810005C4C6946B9
:104BD000200000F095FB0020ADF802000020ADF8A9
:104BE00008000020ADF80A005B4D6946280000F07F
:104BF00087FB01226021280000F0D2FB0121280060
:104C000000F0BFFB0121200000F0BBFB05B030BD70
:104C100018B585B0514C4FF480502060684600F0C4
:104C20009DFB0020ADF800000020ADF8040000203E
:104C3000ADF806000020ADF808000020ADF80A002D
:104C40000020ADF80E000020ADF802003820ADF8CD
:104C50000C000720ADF81000002020603E4C694693
:104C6000200000F04DFB01226021200000F098FBA5
:104C70000121200000F085FB06B010BD0CED00E026
:104C80000000FA050040000808ED00E008080140B7
:104C9000D408012031000020C4080120BF080120F1
:104CA000C0080120C1080120C5080120C608012054
:104CB000C7080120C8080120C9080120CB0801202D
:104CC000CC080120A8080120AC08012030000020F9
:104CD00014080140BC08012010080140CE08012042
:104CE000D1080120D208012034080120D308012076
:104CF000CF080120D0080120C2080120BD080120F2
:104D0000C3080120BE080120CD080120CA080120E7
:104D1000B008012000000020B6080120540801203E
:104D200034000020940801200000E04074080120B5
:104D3000B40801200C00002008000020140000200E
:104D400000380040100C0140140C01400C380040A9
:104D500000080140000C0140003001400C100240EE
:104D6000F8B5684600F0E3FC4FF47A70029040F624
:104D70005F10ADF800000020ADF80C00002001909D
:104D800069465FF0804000F09BFC012201215FF04A
:104D9000804000F0E7FC01215FF0804000F0D3FC90
:104DA00005B000BD80B58448016851F47001016010
:104DB0008249086850F001000860814A1368814800
:104DC000034013600B68804803400B60086830F4B0
:104DD0008020086011687D48014011607C490A68A4
:104DE0007C4802400A605FF41F007B49086000F0C5
:104DF00086F85FF000607949086001BDF0B40026D4
:104E000000210020002200236D4D2C6814F00C04BA
:104E10002700002F04D0042F12D0082F14D060E0F8
:104E20006B4E3668B60107D56D4E3668B60503D5AC
:104E30006C4E6D4F3E6002E06C4E6B4F3E6053E037
:104E40006A4E694F3E604FE02E6816F4803630009F
:104E50002E68320012F0C04F06D112F47011B1F575
:104E6000701F01D0022100E00121C2F38346170028
:104E70007F0E17F030073E438E192F685C490F40B4
:104E800017F0C04F06D117F47011B1F5701F01D0A3
:104E9000022600E00126C7F383417F0E17F030079A
:104EA00039437118002805D1524E06FB01F64E4FCA
:104EB0003E6015E02E68B6030DD5494E366816F4EF
:104EC0004056360B3300494E9F1CB6FBF7F64E4357
:104ED000454F3E6004E0454E06FB01F6424F3E6002
:104EE00002E0424E404F3E602D68434EC5F303152D
:104EF000755D3D4E3768EF403760F0BC704780B558
:104F000000F001F801BD1CB50020019000200090C8
:104F10002A49086850F480300860086810F40030AE
:104F200000900198401C01900098002803D101983E
:104F3000B0F5405FF1D10868800302D501200090F0
:104F400001E0002000900098012834D11C4C20681A
:104F50002060206830F460502060206850F40050D9
:104F60002060206830F4E0602060206850F48060A9
:104F700020602268214802402260226820480243C3
:104F80002260086850F08070086008688001FCD5D5
:104F9000012000F03FFA206880088000206020682F
:104FA00050F002002060206810F00C000828FAD1B0
:104FB000002000F02FFA13BD88ED00E00010024041
:104FC000041002400C00FFE8FFFFF6FEFFFF001791
:104FD0003010024000FFFEFE0810024008ED00E025
:104FE00054100240006CDC021C00002000127A0009
:104FF00000003C6000093D0020000020FFFFC01FB2
:10500000000035A010F0004160B148BF4042B0FA46
:1050100080F29040D21CC2F5846241EA025202EB57
:10502000D021400570470EE0026843680244083012
:105030005FEAC37C44BF4B445B1E52F804CB43F889
:1050400004CB091FF9D150F8041B0029ECD170479B
:10505000F0B540F2FF7581EA030C0CF0004C15EA44
:1050600011541DBF15EA1357AC42AF42E5E0BC41F5
:10507000C1F31301C3F31303801A994143F480135E
:1050800004D2641E0018494180185941C90241EAFE
:105090005051B1FBF3F603FB1611A2FB0675D7EBDB
:1050A000C020A94102D2761E80185941C90241EAA6
:1050B0005051B1FBF3FE03FB1E11A2FB0E75D7EBA3
:1050C000C020A94103D2AEF1010E801859418902D6
:1050D00041EA9051760546EA8E2EB1FBF3F603FBCA
:1050E0001611A2FB0675D7EB8020A94102D2761ECD
:1050F00080185941C90241EA50514EEA060EB1FBEF
:10510000F3F603FB1611A2FB0675D7EBC020A941ED
:1051100002D2761E80185941C90241EA5051B1FBB2
:10512000F3F703FB1711A2FB0735D3EBC020A9410E
:1051300067F100070CBF004247F0010766F3D5276F
:105140004FEA1E31B80814F5806412DDBD0775F111
:10515000004250EB0E5051EB045111F5801F5CBF23
:1051600041EA0C01F0BD4CF07F6141F0E0410020CC
:10517000F0BDBD076D0840EA0E5041F48011D4F136
:105180000104B4F120060ADAC4F120060200E0406E
:1051900001FA06F3E1401843B24015430EE0342C07
:1051A00013DCC6F1200445EA40056D0820FA06F23A
:1051B000154321FA06F0A1400D43002175F100428C
:1051C00050F1000051EB0C01F0BD00205FEA0C0132
:1051D000F0BDCFB992185B41B3FA83F704BFB2FABE
:1051E00082F6BF190B3FB7F120062FBF02FA06F374
:1051F000BB40C7F1200622FA06F638BF3343BA4057
:105200001CB1E419641E33E77F4231F00041B1FA6A
:1052100081F404BFB0FA80F6A4190B3CB4F1200667
:105220002FBF00FA06F1A140C4F1200620FA06F6CD
:1052300038BF3143A0403C1B1AE7AC421ABF05EA15
:105240001357AF4212E050EA41061CBF52EA430630
:10525000BFE750EA4107304661461CBF41EA0551AD
:10526000F0BD52EA430C08BFC143F0BD00204FF42B
:10527000001616EB410F98BF16EB430F08BF16EB55
:10528000410F24BFC14305E016EB430F0CBF61463D
:105290004CEA0551F0BD000001F000428B1AA3F169
:1052A0006051B1F5801F0ADBB1F17F6F1FD242EA76
:1052B000C102C10071F1004142EB507070470B1503
:1052C000C3F10903212B10D2890241EA90518002D7
:1052D0000128494141F0004121FA03F0C3F12003C4
:1052E000994071F1004150417047100070476FF0D4
:1052F000000013EB103F5CBF000E42EAC050704745
:1053000010B40022038813F441538C89240404D57B
:10531000828852F48072828004E084884FF6FF62B3
:10532000144084800C884A8814438A881443CA88AD
:1053300014430A8914434A8914438A895204520C3B
:105340001443CA89144323430380848B4FF2FF72B2
:10535000144084830A8A028210BC704700210180B5
:1053600000214180002181800021C1800021018134
:1053700000214181002181810021C1810721018219
:1053800070470A00D2B2002A04D0028852F04002CC
:10539000028004E003884FF6BF7213400380704719
:1053A000F0B4002600240F00FFB23F09FFB2012530
:1053B000BD401300DBB2002B03D083882B438380D6
:1053C00002E08388AB438380F0BC70470200108901
:1053D000084201D0012000E0002070470A00D2B24C
:1053E000002A04D0144A13680343136003E0124AEE
:1053F00013688343136070470A00D2B2002A04D0B6
:105400000E4A13680343136003E00C4A1368834396
:10541000136070470100C9B2012905D105490A6826
:1054200052F030020A6004E002490A6832F03002A9
:105430000A60704754100240181002401C100240CD
:10544000F0B500220023002400250026002791F853
:1054500003C01CF00F0C91F803E05FEACE6E02D59A
:105460008A7852EA0C0C0A7812062AD002681600D2
:1054700000221400082C23D25FF0010E1EFA04F261
:1054800015000A882A401300AB4217D1A20015006C
:105490000F22AA401700BE431CFA05F21643CA7831
:1054A000282A04D11EFA04FEC0F814E006E0CA78E7
:1054B000482A03D11EFA04FEC0F810E0641CD9E7A4
:1054C00006600A88B2F5807F2EDB42681600002253
:1054D0001400082C27D25FF0010E14F108021EFA06
:1054E00002F215000A882A401300AB4219D1A2002B
:1054F00015000F22AA401700BE431CFA05F21643FE
:10550000CA78282A04D114F108021EFA02F2426174
:10551000CA78482A05D114F108021EFA02FEC0F822
:1055200010E0641CD5E74660F0BDF0B400230F2204
:1055300011F00304E4B2A40012FA04F40F4D0A00BF
:10554000D2B2921055F82220A2430E00F6B2B61045
:1055500045F826200A00D2B2921055F822600700C2
:10556000FFB211F00302D2B2920097403E430A000C
:10557000D2B2921045F82260F0BC7047080001409A
:1055800070B40023284A1400817900292DD0264BBD
:105590001D6801688D431D60244B1D6801688D43A3
:1055A0001D60017963181C6801680C431C60204C65
:1055B000256801688D4325601E4D2E6801688E4365
:1055C0002E604179102908D1226801680A432260BF
:1055D0002A6801680A432A600DE0417951180B00DE
:1055E0001A6801680A431A6005E0017963181A68AD
:1055F00001688A431A6070BC704710B4020000232F
:1056000000200949096811400B4C2468144203D05A
:10561000002901D0012000E00020C0B210BC70477A
:10562000054908607047000000040140040401407F
:10563000080401400C040140140401401B490143CB
:105640001B4A11607047F0B4002200230F24C17878
:1056500000291FD01649096811F4E061D1F5E06115
:10566000090AD1F104052B00CC4045789D4086788D
:10567000264035432D012A000E4D0678AA550125F6
:10568000067816F01F06B5400B4E07787F1146F8D6
:10569000275009E00121057815F01F05A940074DA5
:1056A0000678761145F82610F0BC70470000FA0520
:1056B0000CED00E000E400E000E100E080E100E04B
:1056C00010B400220388DFF8C040A04212D0B0F12D
:1056D000804F0FD0DFF8B82090420BD0DFF8B42015
:1056E000904207D0DFF8B820904203D0DFF89C202A
:1056F000904204D14FF68F7213404A681343DFF88B
:105700009820904208D0DFF89420904204D04FF6C1
:10571000FF4213408A89134303808A68C2620A8861
:1057200002858A7B02860122828210BC70474FF676
:10573000FF71816000210180002181810021416091
:105740000021817370470A00D2B2002A04D0028877
:1057500052F00102028004E003884FF6FE7213400B
:10576000038070471300DBB2002B03D083890B4307
:10577000838102E083898B43838170470A0092B260
:10578000D243028270470000002C01400004004018
:1057900000080040000C00400010004000140040D1
:1057A00000340140DFF85802DFF858120160DFF8DA
:1057B00058220260DFF85402016002607047DFF88F
:1057C0005002016851F080010160DFF8E8020168D1
:1057D00051F080010160704770B504000426B4F1F7
:1057E000046F21D35FF0FF3000F044F9050028007A
:1057F000C0B2042815D1DFF8AC62306850F0020066
:105800003060DFF8A4020460306850F0400030607F
:105810005FF0FF3000F02EF90500306830F0020034
:1058200030602800C0B249E0DFF8800284421FD215
:105830005FF0805000F0EEF806003000C0B204289F
:105840003AD1DFF8CC51286850F002002860DFF828
:1058500060020460286850F0400028605FF08050CB
:1058600000F0D8F80600286830F00200286023E035
:10587000844221D3B4F1016F1ED25FF0805000F05A
:10588000E1F806003000C0B2042815D1DFF8245238
:10589000286850F002002860DFF81C0204602868C5
:1058A00050F0400028605FF0805000F0CBF8060018
:1058B000286830F0020028603000C0B270BDF8B532
:1058C00004000D000426B4F1046F1BD34FF47040A4
:1058D00000F0D0F807003800C0B204280FD1DFF87C
:1058E000C461306850F00100306025804FF4704092
:1058F00000F0C0F807003068400840003060380011
:10590000C0B23DE0DFF8A401844219D24FF47040E8
:1059100000F080F806003000C0B204282ED1DFF875
:10592000F070386850F00100386025804FF4704006
:1059300000F070F8060038684008400038601DE04C
:1059400084421BD3B4F1016F18D24FF4704000F0C1
:1059500079F806003000C0B204280FD1DFF8547186
:10596000386850F00100386025804FF4704000F036
:1059700069F8060038684008400038603000C0B25E
:10598000F2BD0421DFF83C010268D20701D50120F5
:105990000AE00268520701D5022005E00068C0064F
:1059A00001D5032000E00420C0B270470421DFF8D5
:1059B00010010268D20701D501200AE002685207EF
:1059C00001D5022005E00068C00601D5032000E0F3
:1059D0000420C0B27047042138480268D20701D5BC
:1059E00001200AE00268520701D5022005E00068A4
:1059F000C00601D5032000E00420C0B270470000BB
:105A00000420024023016745AB89EFCD44200240CA
:105A10001020024070B504000425FFF7B2FF060015
:105A20003000C0B2012806D1002C04D0FFF7A9FF36
:105A30000600641EF4E7002C01D1052006003000AA
:105A4000C0B270BD70B504000425FFF7AFFF0600BB
:105A50003000C0B2012806D1002C04D0FFF7A6FF09
:105A60000600641EF4E7002C01D10520060030007A
:105A7000C0B270BD70B504000425FFF7ACFF06008E
:105A80003000C0B2012806D1002C04D0FFF7A3FFDC
:105A90000600641EF4E7002C01D10520060030004A
:105AA000C0B270BD9020024094200240000008085F
:105AB0001420024050200240542002408C2002401A
:105AC0004C2002400C20024038B501218548FFF7E8
:105AD0007DFC002800F0DF80834B844A108818701A
:105AE0000024641C641C641C641C641C80490878C9
:105AF000002825D0002010800878482805D1187883
:105B00007C4A107000200870C5E00878582805D13C
:105B10001878794A107000200870BCE0087810F0FE
:105B2000600F0AD0087810F00F00744A10701878CF
:105B3000734A107000200870ADE000200870AAE0E1
:105B4000187884281FD16F496F480B88C05C10807B
:105B50006E4A6F4B6F48056818682D1A15601068FB
:105B6000002804D515687FF00040451915601068BD
:105B7000012807DB1868401C18600888401C088052
:105B80000888088087E01878822818D15F49614822
:105B900003685F4800681B1A0B600868002804D57A
:105BA0000B687FF00040C3180B605B480B681B124A
:105BB0000370007810800868584908706BE0187806
:105BC000832803D155480078108064E01878812834
:105BD00003D15348007810805DE01878F52809D18A
:105BE00050480068800602D5F220108053E0F32070
:105BF000108050E01878F72802D100F081F94AE0CF
:105C00001878282805D10020108001204649087006
:105C100041E01878382805D1002010800120434940
:105C2000087038E042480078002802D00020108038
:105C300031E01878F82811DB1878F82802D1012013
:105C4000108028E01878F92802D10020108022E086
:105C50001878FA2802D1032010801CE00020108060
:105C60001878182803D101203249087013E01878F9
:105C700058280DD0187860280AD01878482807D0FE
:105C8000187810F0600F03D1187810F0700F02D060
:105C900018780870FFE731BD80B527480178491CA6
:105CA000017001215FF08040FFF768FD01BD80B504
:105CB0001020FFF7A2FC00280AD080210948FFF736
:105CC00085FB002801D0FEF7A3FF1020FFF7A8FCFA
:105CD00001BD80B519480178491C01700120FFF70A
:105CE0009FFC01BD00300140B80801200C3001408C
:105CF000B9080120CC080120CB080120C7080120E9
:105D0000C8080120B408012034000020A4080120A4
:105D1000AC080120A8080120BA080120BB08012016
:105D200032000020080C0140C10801203100002091
:105D3000BF080120C0080120BC080120BD080120C7
:105D40007047FEE7FEE7FEE7FEE7704770477047E3
:105D500070470000BFF34F8F70490A6812F4E06289
:105D60006F4802430A60BFF34F8F00BFFDE7008812
:105D70007047F8B504000D00160000273800310008
:105D800080B289B2884209D2380080B235F810104A
:105D90002000FFF794FDA41C7F1CEFE7F1BD2DE967
:105DA000F84F04000D001600B4F1006F02D3B4F1F7
:105DB000016F00D38CE0FFF7F5FC14F17840009000
:105DC000DDF800805FEAD8280098C0F34909D9F5CA
:105DD000806A5046310080B289B2884200D3B24610
:105DE000DFF840B14FF4806259464FF4006000FB89
:105DF00008F010F1006000F06DF800200700380096
:105E0000514680B289B288420BD2380080B210FA73
:105E100089F03BF810004FF6FF71884201D17F1CDA
:105E2000EDE73800514680B289B2884227D24FF45C
:105E3000006000FB08F010F10060FFF7CDFC0020CF
:105E400007003800514680B289B288420BD24846DA
:105E500080B210FA87F0390089B235F811102BF8AA
:105E600010107F1CEDE74FF4806259464FF400603C
:105E700000FB08F010F10060FFF77BFF05E05246E1
:105E800092B229002000FFF774FF3000514680B223
:105E900089B2884202D1FFF792FC19E018F101089B
:105EA00000208146504680B205EB4005504680B246
:105EB00014EB4004B6EB0A06300080B240F2014118
:105EC000884203DB4FF48060824689E7B24687E769
:105ED000BDE8F18FF8B504000D001600002738006A
:105EE000310080B289B2884209D22000FFF73FFF1B
:105EF000390089B225F81100A41C7F1CEFE7F1BD21
:105F00001CB5684608490A680260084C02226946C6
:105F10002000FFF744FFFFF71DFF13BD0CED00E06D
:105F20000400FA05340001208060000800380008F1
:105F300030B4002512E050F8042BD30744BF4A4484
:105F4000521E091F042942F8045BFAD213468C073B
:105F500044BF15809B1CC90748BF1D7050F8041B27
:105F60000029E8D130BC70470102040810204080AD
:105F70001020500005060708090A0B0C100804023F
:105F800001000000001C4E0E000000000000000098
:105F900001020304060708090801FF0010B50749BC
:105FA00079441831064C7C44163404E00A68081D14
:105FB000114488470146A142F8D110BD2C000000D1
:105FC0004C0000004EF68851CEF20001086840F403
:105FD00070000860BFF34F8FBFF36F8F4FF00170F9
:105FE000E1EE100A7047000049FFFFFFA40801001E
:105FF00034000020000000002FF0FFFF34000000FC
:1060000068FFFFFF000000200000000000F00DF816
:10601000002801D0FFF7C2FFAFF300800020AFF3EC
:106020000080FEF7BCF800F002F80120704700F095
:1060300001B800000746384600F002F8FBE7000010
:1060400080B5AFF30080024A11001820ABBEFBE719
:10605000260002000548014603B4684680F309881B
:10606000AFF30080FFF7AEFFFFF7D0FFA5EDF5FE21
:106070000148804701480047A54D000855600008C9
:1060800022221484FFF7FEBFFFF7FEBFFFF7FEBF1B
:10609000FFF7FEBFFFF7FEBFFFF7FEBFFFF7FEBF34
:1060A000FFF7FEBFFFF7FEBFFFF7FEBFFFF7FEBF24
:1060B000FFF7FEBFFFF7FEBFFFF7FEBFFFF7FEBF14
:1060C000FFF7FEBFFFF7FEBFFFF7FEBFFFF7FEBF04
:1060D000FFF7FEBFFFF7FEBFFFF7FEBFFFF7FEBFF4
:1060E000FFF7FEBFFFF7FEBFFFF7FEBFFFF7FEBFE4
:1060F000FFF7FEBFFFF7FEBFFFF7FEBFFFF7FEBFD4
:10610000FFF7FEBFFFF7FEBFFFF7FEBFFFF7FEBFC3
:10611000FFF7FEBFFFF7FEBFFFF7FEBFFFF7FEBFB3
:10612000FFF7FEBFFFF7FEBFFFF7FEBFFFF7FEBFA3
:10613000FFF7FEBFFFF7FEBFFFF7FEBFFFF7FEBF93
:10614000FFF7FEBFFFF7FEBFFFF7FEBFFFF7FEBF83
:10615000FFF7FEBFFFF7FEBFFFF7FEBFFFF7FEBF73
:10616000FFF7FEBFFFF7FEBFFFF7FEBFFFF7FEBF63
:10617000FFF7FEBFFFF7FEBFFFF7FEBFFFF7FEBF53
:10618000FFF7FEBFFFF7FEBFFFF7FEBFFFF7FEBF43
:10619000FFF7FEBFFFF7FEBFFFF7FEBFFFF7FEBF33
:04000005080060553A
:00000001FF
