:020000040800F2
:1000000070540020091000081D0800081F0800088F
:100010002108000823080008250800080000000047
:100020000000000000000000000000002708000899
:1000300029080008000000002B0800082D0800080F
:1000400025100008291000082D10000831100008A4
:1000500035100008391000083D1000084110000854
:1000600045100008491000084D1000085110000804
:1000700055100008591000085D10000861100008B4
:1000800065100008691000086D1000087110000864
:1000900075100008791000087D1000088110000814
:1000A00085100008891000088D10000891100008C4
:1000B00095100008991000089D100008A110000874
:1000C000A5100008A9100008AD1000082F080008AE
:1000D0002D090008B1100008B5100008B91000087B
:1000E000BD100008C1100008C5100008C9100008A4
:1000F000CD100008D1100008D5100008D910000854
:10010000DD100008E1100008E5100008E910000803
:10011000ED100008F1100008F5100008F9100008B3
:10012000FD10000801110008051100080911000860
:100130000D1100081111000815110008191100080F
:1001400000000000000000000000000000000000AF
:100150001D110008211100082511000829110008AF
:100160002D1100083111000835110008391100085F
:100170003D11000841110008451100082DE9F84F14
:1001800000F030F900F090F900F033F900F0B6F922
:10019000B14C200000F0FAF900202080002060809F
:1001A0000020A0800020E0800020208100206081CD
:1001B0000020A0810020E08107202082A74D21009F
:1001C000280000F0B5F901226021280000F0FFF9B5
:1001D0000121280000F0EDF9A14C02222100A148E4
:1001E00000F0B4FAA04861880904228811FA82F16B
:1001F000016000689D494968884216D101222100AA
:100200009B4800F0A3FA208848F21441884203D1A9
:1002100001209849088062E0002096490880022267
:100220009249904800F000FA59E0934800F0B8FA7B
:1002300055E08F4D05222100280000F087FA8F4EEF
:10024000A08800046188401830608D4F2089000428
:10025000E18840183860DFF82C823868397811F06E
:10026000010111EB5001C8F80010DFF81C92D8F81A
:10027000002092B24946854800F068FADFF8F8A1FC
:10028000D8F8002092B24946504600F0CDF9D8F88F
:10029000002092B24946504600F058FADFF8F0814B
:1002A0000020C8F800003A684946D8F8000000F07D
:1002B0009BFAC8F80000D8F80000316888420BD1DA
:1002C00002226A49674800F0AFF9724900200880AD
:1002D0000122280000F0A8F9504600F061FA654DAF
:1002E00028880028A5D16C4908780028F7D000207C
:1002F0000870644E624F3868397811F0010111EBD3
:1003000050013160DFF88491DFF87C81326892B26D
:100310004146484600F088F9326892B24146484664
:1003200000F014FADFF868910020C9F800003A687C
:100330004146D9F8000000F057FAC9F80000DFF88C
:100340003CA1D9F80000DAF800108842C7D101209A
:100350002880504D48F214402880D9F80000688069
:10036000D9F80000000CA8803868E8803868000CD4
:100370002881052229003E4800F056F9022247490B
:10038000384800F051F9DFF8F0B0326892B24146D7
:10039000584600F049F9326892B24146584600F09A
:1003A000D5F90020C9F800003A684146D9F80000A4
:1003B00000F01AFAC9F80000D9F80000DAF80010C5
:1003C00088428CD102222949264800F02DF90020CC
:1003D000288001222900264800F026F9584600F01E
:1003E000DFF97CE780B5012141F2240000F0A0FA9A
:1003F00001BD1CB5A020ADF8000001208DF8020061
:1004000028208DF80300264C6946200000F0B2FA3F
:100410001020ADF8000048208DF803006946200048
:1004200000F0A8FA4020ADF8000018208DF8030075
:100430006946200000F09EFA4FF4C040ADF800007D
:1004400010208DF8030002208DF80200694615483F
:1004500000F090FA13BD00000C4400200030014071
:100460002C440020003800085444002000000020E4
:100470000438000868440020004000085C44002064
:1004800058440020644400200C00002000000108B3
:1004900060440020204400206C4400200400002020
:1004A000000801400014014080B54FF4C06000F026
:1004B000C1FA23208DF8000000208DF801000020F3
:1004C0008DF8020001208DF80300684600F0B7FAAD
:1004D00001BD0EE002684368024408305FEAC37C55
:1004E00044BF4B445B1E52F804CB43F804CB091FB6
:1004F000F9D150F8041B0029ECD1704780B50420D5
:1005000000F0CDFA064807490968074AB1FBF2F145
:10051000016001684FF47A7041430448016001BDF5
:10052000484400200800002040420F004C440020B6
:1005300010B40022038813F441538A89120404D5AD
:10054000828852F48072828004E084884FF6FF62D1
:10055000144084800C884A8814438A881443CA88CB
:1005600014430A8914434A8914438A895204520C59
:100570001443CA89144323430380838B4FF2FF72D1
:1005800013408383098A018210BC704700210180D7
:1005900000214180002181800021C1800021018152
:1005A00000214181002181810021C1810721018237
:1005B0007047C9B2002904D0018851F04001018080
:1005C00004E002884FF6BF710A40028070470023A2
:1005D0000023C9B20909C9B2012313FA01F1D2B249
:1005E000002A03D082881143818003E0828832EAA6
:1005F000010181807047000000887047F8B5040051
:100600000D001600002708E0380080B235F8101001
:10061000200000F0E3FAA41C7F1C3800310080B2F7
:1006200089B28842F0D3F1BD2DE9F0470400894634
:100630009246B4F10060B0F5801F01D3BDE8F087A9
:1006400000F048FA14F178400500ED0AC0F34906BD
:10065000D6F580673800514680B289B2884203D30C
:10066000574601E04FF48067DFF8DC804FF480628A
:1006700041464FF4006000FB05F010F1006000F00F
:1006800065F8002000E0401C01003A0089B292B2F7
:10069000914209D2010089B211FA86F138F811109D
:1006A0004FF6FF729142EED0390080B289B2884293
:1006B00026D24FF4006000FB05F010F1006000F05E
:1006C00023FA00200AE0310089B211FA80F1020019
:1006D00092B239F8122028F81120401C01003A008B
:1006E00089B292B29142EED34FF4806241464FF408
:1006F000006000FB05F010F10060FFF77FFF05E0F0
:100700003A0092B249462000FFF778FF5046390080
:1007100080B289B2884202D100F0E9F98EE76D1CFF
:100720000026380080B209EB4009380080B214EB93
:100730004004BAEB070A504680B240F201418842B9
:1007400090DA574690E700000C3C0020F8B5040012
:100750000D001600002708E02000FFF74DFF3900CC
:1007600089B225F81100A41C7F1C3800310080B22A
:1007700089B28842F0D3F1BD012210F01F018A40F6
:10078000164940B2400941F820207047012210F07C
:100790001F018A40124940B2400941F820207047A9
:1007A00010B50400206810F16040B0F5603F13D22E
:1007B000002141F2240000F0BBF82320FFF7DCFF0A
:1007C0002320FFF7E3FF0748211D09680160216826
:1007D00081F308880068804710BD000080E100E0D8
:1007E00080E200E05044002010B4C04313005A1EC1
:1007F000002B10D00B785840491C002301E0400822
:1008000007E0082BF2DAC407F9D504003C4890EA67
:1008100054005B1CF5E7C04310BC70477047FEE70F
:10082000FEE7FEE7FEE7704770477047704738B550
:10083000344C2078002818D1334834490A88027093
:100840000278F72A02D1F820088057E00078F828CB
:1008500054D100202E49086000202E490860002055
:100860002D4908700120207048E02078012827D108
:100870002A482949254A12880B78C2540A78521C02
:100880000A700978082939DB01784278120252FA95
:1008900081F1827811EB0241C27811EB0261204AAA
:1008A00011600179427912025118827911EB0241EB
:1008B000C07911EB00611B480160022020701DE02F
:1008C00013481149114A12880368CA540268521C1D
:1008D0000260134A126803689A420FD10D4D0268F4
:1008E0002868FFF781FF286028680E490968884258
:1008F00002D101200C4908700020207031BD000099
:100900002083B8ED6A4400200C0000200C30014028
:1009100040440020444400206B4400203844002020
:10092000584400205C4400206C44002070470000C4
:10093000C9B2002904D00E490A681043086004E0D7
:100940000B490A6832EA000008607047C0B201280B
:1009500005D10648016851F03001016004E0034808
:10096000016831F03001016070470000541002400E
:1009700018100240F0B400220022002200220022BF
:100980000022CB7813F00F03CA78D20601D58A78FB
:1009900013430A78120620D0066800241AE0CA78A9
:1009A000482A16D1A740076113E0012717FA04F57A
:1009B0000A882A40AA420CD1A2000F259540AE43D6
:1009C00013FA02F232431600CA78282AE7D1A74068
:1009D0004761641C082CE8D306600A88B2F5807F62
:1009E00026DB4668002420E0012714F1080517FAE9
:1009F00005F50A882A40AA4216D1A2000F25954083
:100A0000AE4313FA02F232431600CA78282A04D100
:100A100014F1080217FA02F24261CA78482A03D197
:100A200014F1080297400761641C082CDCD346606F
:100A3000F0BC7047214908432149086070470021F4
:100A400000210F23C17800291ED01D49096811F427
:100A5000E061D1F5E061090AD1F10402CB404178AF
:100A600011FA02F281780B401A43120115490378FA
:100A7000CA540121027812F01F029140124A0078F4
:100A8000401142F8201009E00121027812F01F0203
:100A900091400E4A0078401142F820107047042817
:100AA00005D10B48016851F00401016004E00848D9
:100AB000016831F004010160704700000000FA0590
:100AC0000CED00E000E400E000E100E080E100E087
:100AD00010E000E0DFF83002DFF830120160DFF8EC
:100AE00030220260DFF8A402016002607047DFF884
:100AF000A002016851F080010160DFF8A8020168DE
:100B000051F080010160704738B504000420B4F151
:100B1000046F1ED35FF0FF3000F024F90100C9B26A
:100B2000042914D1DFF86C52286850F002002860C4
:100B3000DFF864020460286850F0400028605FF02D
:100B4000FF3000F00FF9296831F002012960C0B2CE
:100B500043E0DFF848128C421DD25FF0805000F075
:100B6000D9F80100C9B2042936D1DFF82452286827
:100B700050F002002860DFF828020460286850F076
:100B8000400028605FF0805000F0C4F8296831F020
:100B90000201296020E0611AB1F5002F1CD25FF03C
:100BA000805000F0CBF80100C9B2042914D1DFF85D
:100BB000F451286850F002002860DFF8EC0104606E
:100BC000286850F0400028605FF0805000F0B6F8D0
:100BD000296831F002012960C0B232BD70B504004D
:100BE0000D000420B4F1046F18D34FF4704000F0EE
:100BF000B9F80100C9B204290ED1DFF89861306854
:100C000050F00100306025804FF4704000F0AAF8E9
:100C10003168490849003160C0B237E0DFF87C1123
:100C20008C4217D24FF4704000F074F80100C9B242
:100C300004292AD1DFF85861306850F00100306093
:100C400025804FF4704000F065F83168490849008C
:100C500031601AE0611AB1F5002F16D24FF47040DE
:100C600000F06CF80100C9B204290ED1DFF834613C
:100C7000306850F00100306025804FF4704000F083
:100C80005DF83168490849003160C0B270BD042088
:100C9000DFF820010168C90701D501200AE00168D9
:100CA000490701D5022005E00068C00601D50320F0
:100CB00000E00420C0B2704704203D480168C90725
:100CC00001D501200AE00168490701D5022005E0AD
:100CD0000068C00601D5032000E00420C0B27047C0
:100CE000042032480168C90701D501200AE00168E3
:100CF000490701D5022005E00068C00601D50320A0
:100D000000E00420C0B27047042002402301674580
:100D1000AB89EFCD10B504000420FFF7B8FF02E067
:100D2000FFF7B5FF641E0100C9B2012901D1002CF3
:100D3000F6D1002C00D10520C0B210BD10B50400C2
:100D40000420FFF7B9FF02E0FFF7B6FF641E0100C1
:100D5000C9B2012901D1002CF6D1002C00D1052007
:100D6000C0B210BD10B504000420FFF7B9FF02E0C7
:100D7000FFF7B6FF641E0100C9B2012901D1002CA2
:100D8000F6D1002C00D10520C0B210BD4420024095
:100D900010200240902002409420024000000808E9
:100DA0001420024050200240542002408C20024077
:100DB0004C2002400C20024080B54448016851F4A8
:100DC000700101604249086850F001000860414A22
:100DD00013684148034013600B68404803400B60B0
:100DE000086830F48020086011683D4801401160B7
:100DF0003C490A683C4802400A605FF41F003B49D6
:100E0000086000F005F85FF000603949086001BD36
:100E100080B500F001F801BD1CB500200190002054
:100E200000902B49086850F480300860086810F47E
:100E3000003000900198401C01900098002803D1D8
:100E40000198B0F5405FF1D10868800302D5012018
:100E5000009001E0002000900098012834D11D4C42
:100E600020682060206830F460502060206850F4D2
:100E700000502060206830F4E0602060206850F46A
:100E80008060206022681B480240226022681A4865
:100E900002432260086850F0807008600868800192
:100EA000FCD50120FFF752FD2068800880002060FB
:100EB000206850F002002060206810F00C00082824
:100EC000FAD10020FFF742FD13BD000088ED00E0DD
:100ED00000100240041002400C00FFE8FFFFF6FE85
:100EE000FFFF00173010024000FFFEFE0810024016
:100EF00008ED00E0FFFFC01F000035A030B4002562
:100F000012E050F8042BD30744BF4A44521E091F75
:100F1000042942F8045BFAD213468C0744BF1580BB
:100F20009B1CC90748BF1D7050F8041B0029E8D15D
:100F300030BC704710B5074979441831064C7C44E1
:100F4000163404E00A68081D114488470146A1428E
:100F5000F8D110BD2C0000004C0000004EF6885166
:100F6000CEF20001086840F470000860BFF34F8FB4
:100F7000BFF36F8F4FF00170E1EE100A7047000071
:100F80007DFFFFFF644400000C0000200000000013
:100F900043F5FFFF0C00000080000000000000206F
:100FA0000000000000F00DF8002801D0FFF7C2FF9C
:100FB000AFF300800020AFF30080FFF7DFF800F010
:100FC00002F80120704700F001B8000007463846DB
:100FD00000F002F8FBE7000080B5AFF30080024AA2
:100FE00011001820ABBEFBE72600020005480146B1
:100FF00003B4684680F30988AFF30080FFF7AEFFC3
:10100000FFF7D0FFA5EDF5FE0148804701480047F6
:10101000B90D0008ED0F0008111114842222148468
:10102000001C4E0EFFF7FEBFFFF7FEBFFFF7FEBF2F
:10103000FFF7FEBFFFF7FEBFFFF7FEBFFFF7FEBFE4
:10104000FFF7FEBFFFF7FEBFFFF7FEBFFFF7FEBFD4
:10105000FFF7FEBFFFF7FEBFFFF7FEBFFFF7FEBFC4
:10106000FFF7FEBFFFF7FEBFFFF7FEBFFFF7FEBFB4
:10107000FFF7FEBFFFF7FEBFFFF7FEBFFFF7FEBFA4
:10108000FFF7FEBFFFF7FEBFFFF7FEBFFFF7FEBF94
:10109000FFF7FEBFFFF7FEBFFFF7FEBFFFF7FEBF84
:1010A000FFF7FEBFFFF7FEBFFFF7FEBFFFF7FEBF74
:1010B000FFF7FEBFFFF7FEBFFFF7FEBFFFF7FEBF64
:1010C000FFF7FEBFFFF7FEBFFFF7FEBFFFF7FEBF54
:1010D000FFF7FEBFFFF7FEBFFFF7FEBFFFF7FEBF44
:1010E000FFF7FEBFFFF7FEBFFFF7FEBFFFF7FEBF34
:1010F000FFF7FEBFFFF7FEBFFFF7FEBFFFF7FEBF24
:10110000FFF7FEBFFFF7FEBFFFF7FEBFFFF7FEBF13
:10111000FFF7FEBFFFF7FEBFFFF7FEBFFFF7FEBF03
:10112000FFF7FEBFFFF7FEBFFFF7FEBFFFF7FEBFF3
:10113000FFF7FEBFFFF7FEBFFFF7FEBFFFF7FEBFE3
:08114000FFF7FEBFFFF7FEBF41
:0400000508000FEDF3
:00000001FF
