:020000040800F2
:104000007019012099620008DD5F0008DF5F000879
:10401000E15F0008E35F0008E55F000800000000C2
:10402000000000000000000000000000E75F000842
:10403000E95F000800000000EB5F0008ED5F00088A
:10404000A9620008AD620008B1620008B56200080C
:10405000B9620008BD620008C1620008C5620008BC
:10406000C9620008CD620008735F0008D1620008D1
:10407000D5620008D9620008DD620008E16200082C
:10408000E5620008E9620008ED620008F1620008DC
:10409000F5620008F9620008FD620008016300088B
:1040A00005630008096300080D6300081163000838
:1040B000635F000815630008196300081D630008AA
:1040C000216300082563000829630008015E0008D9
:1040D0002D63000831630008356300083963000868
:1040E0003D63000841630008456300084963000818
:1040F0004D630008516300085563000859630008C8
:104100005D63000861630008656300086963000877
:104110006D63000871630008756300087963000827
:104120007D630008816300088563000889630008D7
:104130008D63000891630008956300089963000887
:10414000000000000000000000000000000000006F
:104150009D630008A1630008A5630008A963000827
:10416000AD630008B1630008B5630008B9630008D7
:10417000BD630008C1630008C56300082DE9F04F66
:10418000DFF8202BDFF8200BDFF8209BDFF86C6CCA
:1041900081B010604FF6FF015368DFF8140B0B403D
:1041A000034353604FF0000A00F0B9FF00F05EFDDA
:1041B00000F049FE00F07EFD00F06AFE00F0F6FE21
:1041C00000F01EFE77E200BF96F81A41002C00F0C6
:1041D0009A82002206F1F00306F1F80C06F5807EC3
:1041E00006F5847835460320197891B901211970B4
:1041F00000278CF800708EF80070022188F80010FB
:1042000006EB440191F832712F7091F83311697007
:1042100002E0032908BF521C597891B90121597055
:1042200000278CF801708EF8017006EB440102271C
:1042300088F8017091F832712F7491F83311697414
:1042400002E0032908BF521C20359B1C401E08F1C8
:1042500002080EF1020E0CF1020CC5D186F82321E2
:10426000D2B2062A14D1062106F1F00000F0B8FF00
:10427000641CE0B2082809DB012086F81B014FF41A
:10428000FA510024C9F8001086F8144186F81A4142
:1042900096F8000196F80811884226D296F8F000A8
:1042A000022822D1D6F8E400012100F0EFFF012816
:1042B0001BD196F8000196F80821401CC1B291422A
:1042C00086F800010AD1D6F8D820B6F8C0101161DE
:1042D0000322002186F8101186F8F020C0B2D6F82B
:1042E000E4108A89304480F85F2096F81001002895
:1042F00007BF96F8F000012896F8F00002281ED1BA
:10430000D6F8E400022100F0C1FF012817D196F889
:10431000F80096F80811884211D2D6F8D810B6F8ED
:10432000C0204A61D6F8E410325C8A81401C86F8CD
:10433000F8000221012086F8100186F8F01096F8A6
:10434000010196F80911884226D296F8F100022858
:1043500022D1D6F8E400012100F098FF01281BD1FA
:1043600096F8010196F80921401CC1B2914286F8E5
:1043700001010AD1D6F8D820B6F8C2101161032283
:10438000002186F8101186F8F120C0B2D6F8E410AA
:104390008A89304480F86F2096F81001002807BF02
:1043A00096F8F100012896F8F10002281FD1D6F8FE
:1043B000E400022100F06AFF012818D196F8F90004
:1043C00096F80911884212D2D6F8D810B6F8C22051
:1043D0004A613318D6F8E4101A7C8A81401C86F8AA
:1043E000F9000221012086F8100186F8F11096F8F4
:1043F000020196F80A11884226D296F8F2000228A5
:1044000022D1D6F8E800012100F040FF01281BD19D
:1044100096F8020196F80A21401CC1B2914286F832
:1044200002010AD1D6F8DC20B6F8C41011610322CB
:10443000002186F8111186F8F220C0B2D6F8E810F3
:104440008A89304480F87F2096F81101002807BF40
:1044500096F8F200012896F8F200022820D1D6F84A
:10446000E800022100F012FF012819D196F8FA00A5
:1044700096F80A11884213D2D6F8DC10B6F8C42098
:104480004A613318D6F8E81093F820208A81401C3E
:1044900086F8FA000221012086F8110186F8F21050
:1044A00096F8030196F80B11884226D296F8F3008D
:1044B000022822D1D6F8E800012100F0E7FE012809
:1044C0001BD196F8030196F80B21401CC1B2914212
:1044D00086F803010AD1D6F8DC20B6F8C6101161BF
:1044E0000322002186F8111186F8F320C0B2D6F815
:1044F000E8108A89304480F88F2096F8110100284E
:1045000007BF96F8F300012896F8F300022820D19F
:10451000D6F8E800022100F0B9FE012819D196F87A
:10452000FB0096F80B11884213D2D6F8DC10B6F8CF
:10453000C6204A613318D6F8E81093F830208A81F3
:10454000401C86F8FB000221012086F8110186F844
:10455000F31096F8040196F80C11884226D296F8CA
:10456000F400022822D1D6F8EC00012100F08EFEE2
:1045700001281BD196F8040196F80C21401CC1B209
:10458000914286F804010AD1D6F8E020B6F8C810A6
:1045900011610322002186F8121186F8F420C0B2BE
:1045A000D6F8EC108A89304480F89F2096F81201E2
:1045B000002807BF96F8F400012896F8F4000228B6
:1045C00020D1D6F8EC00022100F060FE012819D1BC
:1045D00096F8FC0096F80C11884213D2D6F8E01039
:1045E000B6F8C8204A613318D6F8EC1093F840208A
:1045F0008A81401C86F8FC000221012086F8120105
:1046000086F8F41096F8050196F80D11884226D226
:1046100096F8F500022822D1D6F8EC00012100F02E
:1046200035FE01281BD196F8050196F80D21401C96
:10463000C1B2914286F805010AD1D6F8E020B6F859
:10464000CA1011610322002186F8121186F8F520A4
:10465000C0B2D6F8EC108A89304480F8AF2096F8C2
:104660001201002807BF96F8F500012896F8F5001A
:10467000022820D1D6F8EC00022100F007FE012824
:1046800019D196F8FD0096F80D11884213D2D6F88C
:10469000E010B6F8CA204A613318D6F8EC1093F847
:1046A00050208A81401C86F8FD000221012086F8F6
:1046B000120186F8F51096F8190100283FF484AD30
:1046C00000F0F0F90120002186F81A0186F819118E
:1046D00086F8161186F8171186F8181186F81C113D
:1046E00086F81D1186F81E1186F81F1186F8201114
:1046F00086F8221186F8241186F82511C6F82C11A7
:10470000C6F83011C4E596F81B01002847D00128EF
:104710000BD196F8140100283FF4BAAD0021022015
:1047200086F8141186F81B01B2E502287FF4B0ADBB
:1047300096F8140100283FF4ABAD06F1F00106F144
:10474000F80206F5807306F58474B4460320022748
:10475000012501F8015B002502F8015B03F8015B0C
:1047600004F8017B1D258CF8005008258CF80150B9
:10477000012501F8015B002502F8015B03F8015BEC
:1047800004F8017B1D258CF8105008258CF8115079
:10479000401E0CF1200CDBD186F81B0178E596F861
:1047A000180138B100F07EF9002086F8160186F86D
:1047B00018016DE596F8160100281CBF96F8141133
:1047C00000295DD00020012186F8140186F815111A
:1047D00096F82501B6F8CC10014209D0002301213A
:1047E00086F8F83086F8003186F8103186F8F01037
:1047F000B6F8CE10014209D00023012186F8F93025
:1048000086F8013186F8103186F8F110B6F8D0102C
:10481000014209D00023012186F8FA3086F80231DE
:1048200086F8113186F8F210B6F8D210014209D09C
:104830000023012186F8FB3086F8033186F8113118
:1048400086F8F310B6F8D410014209D000230121F4
:1048500086F8FC3086F8043186F8123186F8F410B8
:10486000B6F8D61001423FF413AD0020012186F8BE
:10487000FD0086F8050186F8120186F8F51007E5B7
:1048800096F8151111B3002086F8150196F821014C
:104890000328BCBF401C86F821010021002000F045
:1048A0004EF90121002000F04AF90021012000F01A
:1048B00046F90121012000F042F90021022000F018
:1048C0003EF90121022000F03AF9E1E400287FF4EA
:1048D000DFAC96F8170100283FD000F0E3F8002085
:1048E000012186F8170186F8161186F82101A6F82D
:1048F0002601A6F82801C6F82C01C6F8300106F5F5
:10490000847806F1F80506F58077B3460324BB20CA
:104910008BF800000F210BF1010000F0BFFC072015
:1049200008F8010B05F8010B07F8010BBB238BF806
:1049300010300F210BF1110000F0B0FC072008F837
:10494000010B05F8010B641E07F8010B0BF1200B9E
:10495000DDD1002086F814019AE496F81F0178B39F
:1049600096F81E2102EBD271490822F0010CA2EB4D
:104970004103B4449C449CF8F01009BB520806EB78
:104980004201CD18012485F8F040CF18002487F8A3
:10499000F84085F8004106EB42121C011C25155514
:1049A0003044224490F8430150701944022081F8A9
:1049B00008010122002086F8202186F81F0167E403
:1049C00096F82001A0B196F81E0100EBD07220F0FD
:1049D000010152083144A0EB4203194491F8F02040
:1049E000032A05D1002386F8203181F8F0304FE406
:1049F00096F8220170B1012808BF4FF4FA5003D095
:104A0000022803D14FF4FA60C9F80000002186F8AB
:104A100022113DE40AEBDA735B10AAEB430106EBCB
:104A20004302501890F8F000A8B95418012084F8F7
:104A3000F0000025501806EB431380F8F85084F876
:104A4000005103EB0110F52404704570114402205D
:104A500081F808011CE403287FF41AAC06EB431329
:104A600003EB0113012093F8613096F8244100FA1A
:104A70000AF0712B0CBF204324EA000086F82401C1
:104A8000114400200AF1010ADFF8EC2481F8F0005B
:104A90008AFB023202EBD27202EB4200AAEB400A1E
:104AA000FFF7F6BB2DE9F04F81B0DFF8501301F5A9
:104AB000887001F1F80501F5807901F5847B01F139
:104AC000F00801F1E40601F1C00A01F1D80703245E
:104AD00000903068802100F0D9FB0128F9D03068BF
:104AE000012100F0D3FB012804BF30688189009ABE
:104AF000521C0092002002F8010D002339683AF898
:104B0000020B08610021002005F8010B09F8010BD8
:104B10000BF8011B08F8013B361D57F8042B3AF837
:104B2000020B106105F8011B09F8011B0BF8011BB2
:104B3000641E08F8013BCCD101B0BDE8F08F2DE92F
:104B4000F043AE4B03EB800202EB410281B0B2F8BE
:104B5000CC5093F8252115421CBF93F81621002A4A
:104B600000F0818093F82121022A7CDDD3F8309176
:104B7000D3F82C51B5EB090744BF6FF00042D719A9
:104B8000DFF8FC23DFF8FC63B750012737604FF6EE
:104B9000FF77B458BC4254DC03EB401000EB01102B
:104BA000B3F8281190F861E006F1040804F1010C53
:104BB00008F801E0491CBC454FF0020E3BDC90F8C0
:104BC00062E08CB2491C08F804E00CF1010CBC4511
:104BD0004FF0030E2FDC90F863E08CB2491C08F80C
:104BE00004E00CF1010CBC454FF0040E23DC90F8FE
:104BF00064E08CB2491C08F804E00CF1010CBC45DF
:104C00004FF0050E17DC90F865E08CB2491C08F8EF
:104C100004E00CF1010CBC454FF0060E0BDC90F8E3
:104C20006600341D1FFA81F8491C04F808000CF1D5
:104C3000010C4FF0070E46F802C0C6F800E0A3F8DA
:104C40002811306845196D1EC3F82C51B158B9426E
:104C500009DDB944C3F82C91002083F8160101B096
:104C6000BDE8F0431EE701B0BDE8F08300B581B0B8
:104C7000012141F20D0000F015FB0121C24800F0B6
:104C80001BFB01214FF0007000F092FB0121BF4897
:104C900000F08EFB01B05DF804EB0121BC4800F090
:104CA00087BB000008ED00E0004000082C00004039
:104CB0000003FA0510B582B010204821ADF80000BD
:104CC0008DF8031002228DF802206946B14C20466F
:104CD00000F010FBA022ADF8002001218DF8021099
:104CE00028228DF803206946204600F003FB40216E
:104CF000ADF8001018228DF803206946204600F018
:104D0000F9FA4FF420400121ADF800008DF80210AF
:104D100018228DF8032069469F4C204600F0EAFADD
:104D20004FF4C051ADF8001010228DF803206946F1
:104D3000204600F0DFFA4FF48041ADF80010282241
:104D40008DF803206946204600F0D4FA282001217E
:104D5000ADF800008DF8021018228DF80320694686
:104D6000204600F0C7FA0321ADF8001010228DF89C
:104D700003206946204600F0BDFA1021ADF800106E
:104D800028228DF803206946204600F0B3FA4FF43C
:104D900020700121ADF800008DF8021018228DF866
:104DA00003206946204600F0A5FA4FF48861ADF86B
:104DB000001010228DF803206946204600F09AFA70
:104DC0004FF48071ADF8001028228DF80320694659
:104DD000204600F08FFA694800F1C00100F1D802C6
:104DE0005FF0030052F8043B31F8024B1C61401E97
:104DF00031F8024B1C61F5D102B010BD000000205B
:104E000000B583B00421002000F02DFD1021002208
:104E100001918DF80820082101228DF809108DF8E4
:104E20000A2001A800F04AFD0A2101228DF8001095
:104E30008DF801208DF802208DF80320684600F0DF
:104E400088FD03B000BD00B581B04FF4A06000F054
:104E50007BFD00228DF801208DF802202321012204
:104E60008DF800108DF80320684600F072FD1C21BB
:104E700003228DF800108DF80120072101228DF802
:104E800002108DF80320684600F063FD01B000BDFC
:104E900070B586B0684600F0D4F90021ADF8001076
:104EA00000224FF400710192ADF80A10ADF808200D
:104EB0004FF48271ADF80210ADF80E2007213822B0
:104EC000ADF81010ADF80C206946344C344D354E19
:104ED000204600F089F96946284600F085F96946C0
:104EE0004FF0402000F080F90021ADF80210ADF83D
:104EF0000A103046694600F077F9012260213046F9
:104F000000F0B7F90121304600F0A7F90121204651
:104F100000F0A3F90121284600F09FF901214FF08C
:104F2000402000F09AF906B070BD10B51E4C86B056
:104F30004FF480512160684600F083F90021009110
:104F400001910291ADF80E1038220721ADF80C2026
:104F5000ADF81010002020606946124C204600F089
:104F600043F901226021204600F083F90121204607
:104F700000F073F906B010BDABAAAA2A0000002009
:104F8000040001005C01002001C0010062010080FA
:104F90007301008000080140000C0140003800400F
:104FA000003C0040003001400C10024000B585B0CC
:104FB000684600F03BFD4FF47A7102911D220021FA
:104FC000ADF80C100191ADF8002069464FF080401B
:104FD00000F0F6FC012201214FF0804000F03BFD83
:104FE00001214FF0804000F02AFD05B000BD30B532
:104FF000016884684218416802EB5103C90703D570
:105000004C4401E0491C08D19A4218BF12F9011B17
:1050100001D10C3030BD12F8015B002904F8015BAE
:10502000F0D4491EF7D5EFE730B55F4C5F4D6049CE
:1050300083B0D4F8800040F47000C4F88000286881
:1050400040F0010028606A685A480A406A602B688C
:1050500003402B602968584821F4802129606A6840
:1050600002406A604FF41F02296B544801402963D3
:10507000AA600021009100220192296841F4803148
:105080002960286800F4003001900098401C0090CE
:10509000019818B90098B0F5405FF2D12868400C2B
:1050A00000F0010001900198012833D16868686020
:1050B000696821F460516960686840F40050686074
:1050C000686820F4E0606860686840F48060686048
:1050D00069683B48014069603A4869680143696012
:1050E0002A6842F080722A6028688101FCD501207C
:1050F00000F0ECF86868800880006860686840F03C
:1051000002006860686800F00C000828FAD10020EE
:1051100000F0DCF84FF00060206003B030BD2A4999
:10512000086810F00C0003D0082809D0274A2DE0A9
:10513000C86A820136D5086D820533D5244A25E038
:105140000B680A68D1F800C0224800EA0C0C1CF079
:10515000C04F06D10CF47010B0F5701F18BF0220BC
:1051600000D10120CCF3834242EA5C628218DB0367
:1051700058BF194809D50B68980311D5086D134B12
:10518000C0F30130801CB3FBF0F0424313480260CF
:105190000968C1F3031101440979CA4002607047EC
:1051A0000A48F2E7094AF1E708ED00E00010024082
:1051B0000C00FFE8FFFFF6FEFFFF001700FFFEFEFA
:1051C000FFFFC01F000035A00410024000127A004B
:1051D000006CDC0200003C6000093D00480100203A
:1051E000002200F051BC000030B404888A89130406
:1051F00004F4415404D5828842F48072828004E031
:1052000083884FF6FF62134083800B884A888D891C
:105210001C438B881443CA881C430B8914434A8956
:105220001C431443C5F30E05CB892C431C43048057
:105230004FF2FF72848B14408483098A018230BC50
:10524000704700210180072241808180C180018157
:1052500041818181C1810282704721B1018841F081
:1052600040010180704702884FF6BF710A400280FA
:10527000704701230909002A03FA01F1828889B2E3
:1052800014BF114322EA0101818070470089014067
:10529000481E8041C043C00F70470000002200F04C
:1052A0000DBC0000104A002919BF1168084313689B
:1052B00023EA0000106070470C4A002919BF1168EA
:1052C0000843136823EA000010607047012808496A
:1052D00004D1086840F03000086070470A6822F086
:1052E00030020A6070470000181002401C10024093
:1052F000541002402DE9F041CA78002502F00F0356
:10530000D40644BF8A7813430A880124D6B216B360
:1053100006680F2704FA05FC0CEA020EE64516D1D2
:105320004FEA850E07FA0EF826EA080603FA0EFE83
:105330004EEA060691F803E0BEF1280F08BFC0F858
:1053400014C004D0BEF1480F08BFC0F810C06D1CD7
:10535000082DDFD30660B2F5807F27DB4668002585
:105360005FF00F0705F1080C04FA0CFC0CEA020EC2
:10537000E64517D14FEA850E07FA0EF826EA080629
:1053800003FA0EFE4EEA060691F803E0BEF1280F7E
:1053900008BFC0F814C091F803E0BEF1480F08BF81
:1053A000C0F810C06D1C082DDCD34660BDE8F0814C
:1053B00070B4DFF8D82490426FD320F00040C509C4
:1053C00000F07F00020900F00F009300052D00FAA5
:1053D00003F31ED8DFE805F003070C101519DFF8FA
:1053E000B0441C3415E0DFF8A86406F1200410E096
:1053F000DFF89C4424340CE0DFF8946406F12804C0
:1054000007E0DFF88C442C3403E0DFF8846406F115
:1054100030041AB920680009000135E0012A10D1D2
:10542000012D0AD1042803D9206820F0C0002BE008
:10543000226822F03002226027E0206820F0F0008D
:1054400022E0022A03D1206820F470601CE0032AC5
:1054500003D1206820F4704016E0042A03D12068AC
:1054600020F4702010E0052A03D1206820F4700099
:105470000AE0062A03D1206820F0706004E0072AC1
:1054800003D1206820F070402060012940F0E981BC
:1054900020680343236070BC7047012800F09380AC
:1054A00002281CBF0428082800F08180102800F082
:1054B0009880302800F0A380402800F0AE80C028FB
:1054C00000F0B980B0F5807F00F0C380B0F5007FB8
:1054D00000F0CD80B0F5407F00F0D780B0F5006FD0
:1054E00000F0E180B0F5406F00F0EB80B0F5805F38
:1054F0005DD0B0F5804F00F0F280B0F5C04F00F005
:10550000FC80B0F5004F18BFB0F5803F4FD0B0F52C
:10551000003F18BFB0F5802F49D0B0F5002F18BF5D
:10552000B0F5801F43D0B0F5001F00F05F81B0F5EB
:10553000800F00F04E81B0F5000F00F03D81B0F11A
:10554000807F00F0E880B0F1007F00F0F280B0F1E1
:10555000806F00F0FC80B0F1805F00F02081B0F13E
:10556000005F00F00F81B0F1804F00F0FE80C94B6A
:1055700098421CBFC84B984200F04581C74B9842E7
:105580001CBFC74B984200F03E81C64B984200F0CA
:105590004781C54B984200F04E81C44B984200F0C1
:1055A0005581C34B984200F02E8170BC7047B84AB9
:1055B000136883430129136040F053811168084345
:1055C000106070BC7047B24ABA48136803400129A2
:1055D000136040F04681116841F00101116070BC18
:1055E0007047AB48026822F030020129026040F0A7
:1055F0003881016841F01001016070BC7047A44817
:10560000026822F030020129026040F02A8101681C
:1056100041F03001016070BC70479D48026822F083
:10562000C0020129026040F01C81016841F0400184
:10563000016070BC70479648026822F0C0020129E0
:10564000026040F00E81016841F0C001016070BC51
:1056500070478F48026822F440720129026040F0CE
:105660000081016841F48071016070BC7047884816
:10567000026822F440720129026040F0F280016861
:1056800041F40071016070BC70478148026822F4E7
:1056900040720129026040F0E480016841F44071E9
:1056A000016070BC70477A48026822F440620129A8
:1056B000026040F0D680016841F40061016070BC76
:1056C00070477348026822F440620129026040F08A
:1056D000C880016841F44061016070BC70476C484B
:1056E000026822F4C0420129026040F0BA800168D9
:1056F00041F48041016070BC70476548026822F443
:10570000C0420129026040F0AC80016841F4C04110
:10571000016070BC70475E48026822F0E0620129B7
:10572000026040F09E80016841F08071016070BCB1
:1057300070475748026822F0E0620129026040F099
:105740009080016841F00071016070BC7047504862
:10575000026822F0E0620129026040F08280016864
:1057600041F08061016070BC70474948026822F0D6
:1057700080420129026074D1016841F080410160DA
:1057800070BC70474248026822F000520129026052
:1057900067D1016841F00051016070BC70473C481E
:1057A000026822F08052012902605AD1016841F05A
:1057B0008051016070BC70473548026822F40002D5
:1057C000012902604DD1016841F40001016070BC03
:1057D00070472F48026822F480020129026040D1FC
:1057E000016841F48001016070BC7047284802687C
:1057F00022F400120129026033D1016841F4001142
:10580000016070BC7047224A9369C0F3150083435E
:105810000129936125D191690843906170BC70475B
:105820001B48826922F4C0120129826119D1816961
:1058300041F4002114E01648826922F4C0120129C3
:1058400082610ED1816941F4801109E010488269BA
:1058500022F4C0120129826103D1816941F4C0118F
:10586000816170BC704770B4134B8A0021F0030152
:1058700002F00C025C580F259540AC435C50904000
:105880005E583043585070BC7047000001000080E3
:1058900004000140200000400004004000000240DD
:1058A00000000440000008400000104000001840C4
:1058B00000002040FEFFFF7F0800014070B4026836
:1058C00081791F4BD24331B31C4625682A402260A0
:1058D000626801688A436260057959190E68026836
:1058E00016430E60A56801688D43A560E2680168F3
:1058F0008A43E26041790268102908D1A1680A430D
:10590000A260E26800680243E26070BC7047581809
:1059100001680A4303E00079181801680A40026030
:1059200070BC7047064B19685B6902460020114045
:1059300013421CBF002901207047024908607047CC
:1059400000040140140401401849194A084310603A
:105950007047F0B40378C1781C460122E1B11449C4
:105960000B684578867803F4E063C3F5E0631B0AAF
:105970000F27C3F10401DF408D403E4035430D4900
:105980000D4B2D010D55017801F01F008240490992
:1059900043F82120F0BC704703F01F03074802FAC8
:1059A00003F3640940F82430F0BC70470000FA05A6
:1059B0000CED00E000E400E000E100E080E100E048
:1059C00030B40488DFF8A420904218BFB0F1804FB3
:1059D0000FD0DFF8A02090421CBFDFF89C30984227
:1059E00007D0DFF8A02090421CBFDFF88450A84207
:1059F00004D14FF68F734A681C401443DFF87C30A3
:105A000098421CBFDFF87820904204D04FF6FF4345
:105A10008A891C40144304808B68C3620A8802850B
:105A20000122897B0186828230BC70474FF6FF716C
:105A3000816000220280828142608273704721B1BE
:105A4000018841F001010180704702884FF6FE7124
:105A50000A4002807047002A828914BF114322EA5B
:105A6000010181817047C94301827047002C0140C8
:105A70000004004000080040000C004000100040FE
:105A8000001400400034014000B500BF13009646EA
:105A90009446103928BFA0E80C50FAD85FEA417C40
:105AA00028BF0CC048BF40F8042BC90728BF20F806
:105AB000022B48BF00F8012B00BD0000401810F079
:105AC000030308D0C91A1FD3DB0748BF00F8012D14
:105AD00028BF20F8022D130030B4144615461039A3
:105AE00028BF20E93C00FAD8490728BF20E90C006C
:105AF00048BF40F8042D890028BF20F8022D48BF78
:105B000000F8012D30BC7047C91818BF00F8012DEE
:105B1000CB0728BF00F8012D70470000DFF8BC025A
:105B2000DFF8BC12DFF8BC2201600260016402648D
:105B30007047DFF8B402016841F080010160026C37
:105B400042F080020264704730B504460420B4F18C
:105B5000046F81B021D34FF0FF3000F011F9042819
:105B600059D1DFF88452D5F8800040F00200C5F822
:105B70008000C5F88440D5F8800040F04000C5F8AA
:105B800080004FF0FF3000F0FBF8D5F8801021F0D6
:105B90000201C5F8801001B030BDDFF850128C4210
:105BA0001AD24FF0805000F08FF8042833D1DFF87C
:105BB0003852286840F0020028606C604FF0805036
:105BC000296841F04001296000F07EF8296821F041
:105BD0000201296001B030BDDFF814221219B2F5BC
:105BE000002F18D24FF0805000F09CF8042812D1FA
:105BF000DFF8F451286C40F0020028646C64286CD3
:105C000040F0400028644FF0805000F08BF8296C81
:105C100021F00201296401B030BD70B504460420B2
:105C2000B4F1046F0D4619D34FF4704000F0A8F89A
:105C3000042848D1DFF8B061D6F8800040F00100B8
:105C4000C6F8800025804FF4704000F099F8D6F82F
:105C5000801049084900C6F8801070BDDFF88C112B
:105C60008C4215D24FF4704000F02EF804282AD14F
:105C7000DFF87461306840F00100306025804FF437
:105C8000704000F021F8316849084900316070BD6A
:105C9000DFF85C211219B2F5002F14D24FF47040D6
:105CA00000F040F804280ED1DFF83C61306C40F081
:105CB0000100306425804FF4704000F033F8316CFF
:105CC00049084900316470BD4A4A136804215FEAFB
:105CD000C37C48BF012117D413685FEA437C48BFE7
:105CE000022111D413685FEAC36C0DD503210BE0C8
:105CF00013685FEAC36C06D5032104E013685FEA0A
:105D0000437CF5D50221401E012907D138B1136823
:105D100004215FEAC37CF1D50121F4E700B9052134
:105D200008467047344A136804215FEAC37C48BFC1
:105D3000012117D413685FEA437C48BF022111D4C4
:105D400013685FEAC36C0DD503210BE013685FEAAB
:105D5000C36C06D5032104E013685FEA437CF5D5E4
:105D60000221401E012907D138B1136804215FEADE
:105D7000C37CF1D50121F4E700B90521084670473D
:105D80001E4A136804215FEAC37C48BF012117D46F
:105D900013685FEA437C48BF022111D413685FEAAD
:105DA000C36C0DD503210BE013685FEAC36C06D505
:105DB000032104E013685FEA437CF5D50221401E0D
:105DC000012907D138B1136804215FEAC37CF1D5FA
:105DD0000121F4E700B9052108467047042002407C
:105DE00023016745AB89EFCD102002400000080871
:105DF0000000F8F70C2002404C2002408C200240AA
:105E000030B5664C81B001212046FFF73FFA0028EB
:105E100000F0A5806249A0890870487810B300227C
:105E20004828A28106D108785E4A107000234B7082
:105E300001B030BD582806D108785B4A10700023A5
:105E40004B7001B030BD10F0600F00F08780574AF2
:105E5000574B00F00F0010700024087818704C7039
:105E600001B030BD0A78842A17D1524A52481388AB
:105E7000C55C524B5248A5811C6805682D1B44BF68
:105E80006FF000404519002D04DD641C1C60108873
:105E9000401C10804D6001B030BD822A10D14848AE
:105EA000464A036812689A1A44BF6FF0004082188D
:105EB0001012C3B2A381CA704A60887001B030BDAD
:105EC000832A08BFC87832D0812A04D13D4801789E
:105ED000A18101B030BD382A05D13B4AA081012102
:105EE000117001B030BDF52A08BFF1201FD0F72A8C
:105EF00004D101B0BDE8304000F0B6B8282A05D181
:105F0000324AA0810121117001B030BD304B1878A8
:105F100030B9F82A0EDB08BF012008D0F92A03D1D6
:105F20000020A08101B030BDFA2A03D10320A08156
:105F300001B030BD0023182AA38104D125490120D6
:105F4000087001B030BD582A1CBF602A482A05D00D
:105F500012F0600F08BF12F0700F00D04A7001B04D
:105F600030BD1D490120087001214FF08040FFF72E
:105F70007ABD00B581B01020FFF7D4FC60B180215C
:105F80000648FFF783F908B1FEF7CFFF01B05DF8CF
:105F900004EB1020FFF7D1BC01B000BD0030014080
:105FA0006409012025010020220100201E0100209B
:105FB0001F01002026010020600100203001002088
:105FC0002C010020240100201901002018010020CC
:105FD0001601002017010020140100207047FEE781
:105FE000FEE7FEE7FEE77047704770477047000026
:105FF00070B5140005460E4600F0088036F8021B06
:106000002846FFF70AFEAD1C641EF7D170BD0000E4
:1060100070B403460024100023D012F0030007D010
:1060200033F8025BA6B2641C21F81650401EF7D16B
:10603000920816D01888A5B221F81500641C58885B
:10604000A5B221F81500641C9888A5B221F81500A6
:10605000641CD888A5B20833641C21F81500521EB0
:10606000E8D170BC704700002DE9F04F47A1DFF880
:1060700010810A68DFF804A181B002240092EB4687
:10608000FFF74CFD072602274FF6FF79F50205F1D1
:1060900000654FF4806251462846FFF7B9FF0020A3
:1060A00005E000BF3AF8101049452ED1401CB84217
:1060B00014DA3AF81010494527D1401CB8420DDADD
:1060C0003AF81010494520D1401CB84206DA3AF897
:1060D0001010494519D1401CB842E3DBB84214DB2B
:1060E000BAB259464046FFF783FFA0B2B84236D055
:1060F0000BEB470B08EB4708E41B761CA7B2B7F580
:10610000806FC8BF4FF48067C0E72846FFF71CFDCB
:10611000002F1FDD17F0030152465B4600F006809A
:1061200033F8020B22F8020B491EF9D1B80811D03E
:1061300033F8021B22F8021B401E33F8021B22F820
:10614000021B33F8021B22F8021B33F8021B22F851
:10615000021BEDD14FF4806251462846C3E7FFF79A
:10616000E8FCBFF34F8F074907480A6802F4E06272
:1061700002430A60BFF34F8F00BFFDE764010120B7
:10618000003800080CED00E00400FA052222148417
:1061900030B4002512E050F8042BD30744BF4A4422
:1061A000521E091F042942F8045BFAD213468C07D9
:1061B00044BF15809B1CC90748BF1D7050F8041BC5
:1061C0000029E8D130BC704710B50749794418312F
:1061D000064C7C44163404E00A68081D11448847C4
:1061E0000146A142F8D110BD2C000000480000007B
:1061F0004EF68851CEF20001086840F47000086045
:10620000BFF34F8FBFF36F8F4FF00170E1EE100AB5
:10621000704700007DFFFFFF100801005C010020B7
:1062200000000000CBEDFFFFA0010000BA0000005D
:106230000000002000F00DF8002801D0FFF7C4FF97
:10624000AFF300800020AFF30080FDF797FF00F070
:1062500002F80120704700F001B8000007463846F8
:1062600000F002F8FBE7000080B5AFF30080024ABF
:1062700011001820ABBEFBE72600020005480146CE
:1062800003B4684680F30988AFF30080FFF7B0FFDE
:10629000FFF7D0FFA5EDF5FE014880470148004714
:1062A000295000087D620008FFF7FEBFFFF7FEBF20
:1062B000FFF7FEBFFFF7FEBFFFF7FEBFFFF7FEBF12
:1062C000FFF7FEBFFFF7FEBFFFF7FEBFFFF7FEBF02
:1062D000FFF7FEBFFFF7FEBFFFF7FEBFFFF7FEBFF2
:1062E000FFF7FEBFFFF7FEBFFFF7FEBFFFF7FEBFE2
:1062F000FFF7FEBFFFF7FEBFFFF7FEBFFFF7FEBFD2
:10630000FFF7FEBFFFF7FEBFFFF7FEBFFFF7FEBFC1
:10631000FFF7FEBFFFF7FEBFFFF7FEBFFFF7FEBFB1
:10632000FFF7FEBFFFF7FEBFFFF7FEBFFFF7FEBFA1
:10633000FFF7FEBFFFF7FEBFFFF7FEBFFFF7FEBF91
:10634000FFF7FEBFFFF7FEBFFFF7FEBFFFF7FEBF81
:10635000FFF7FEBFFFF7FEBFFFF7FEBFFFF7FEBF71
:10636000FFF7FEBFFFF7FEBFFFF7FEBFFFF7FEBF61
:10637000FFF7FEBFFFF7FEBFFFF7FEBFFFF7FEBF51
:10638000FFF7FEBFFFF7FEBFFFF7FEBFFFF7FEBF41
:10639000FFF7FEBFFFF7FEBFFFF7FEBFFFF7FEBF31
:1063A000FFF7FEBFFFF7FEBFFFF7FEBFFFF7FEBF21
:1063B000FFF7FEBFFFF7FEBFFFF7FEBFFFF7FEBF11
:1063C000FFF7FEBFFFF7FEBF8100BE002E100008E2
:1063D0000100020000044000010002000400080067
:1063E00010002000000C0140000C0140000C014096
:1063F00000380040003C004000400040D700000151
:10640000E6000C6B806B016C07380023006B0024E6
:10641000FC0006081018001C4E0EF80007010203CD
:05642000040607080955
:040000050800627D10
:00000001FF
