:020000040800F2
:10400000A0190120C96D0008D7690008D969000806
:10401000DB690008DD690008DF69000800000000B6
:10402000000000000000000000000000E16900083E
:10403000E369000800000000E5690008E76900087E
:10404000DD6D0008E16D0008E56D0008E96D000810
:10405000ED6D0008F16D0008F56D0008F96D0008C0
:10406000FD6D0008016E0008AD690008056E0008CE
:10407000096E00080D6E0008116E0008156E00082C
:10408000196E00081D6E0008216E0008256E0008DC
:10409000296E00082D6E0008316E0008356E00088C
:1040A000396E00083D6E0008416E0008456E00083C
:1040B00099690008496E00084D6E0008516E0008AD
:1040C000556E0008596E00085D6E00085D670008B7
:1040D000616E0008656E0008696E00086D6E00086C
:1040E000716E0008756E0008796E00087D6E00081C
:1040F000816E0008856E0008896E00088D6E0008CC
:10410000916E0008956E0008996E00089D6E00087B
:10411000A16E0008A56E0008A96E0008AD6E00082B
:10412000B16E0008B56E0008B96E0008BD6E0008DB
:10413000C16E0008C56E0008C96E0008CD6E00088B
:10414000000000000000000000000000000000006F
:10415000D16E0008D56E0008D96E0008DD6E00082B
:10416000E16E0008E56E0008E96E0008ED6E0008DB
:10417000F16E0008F56E0008F96E000810B410F03A
:104180000703DFF8AC4C22684FF6FF010A4052EA01
:104190000322DFF8481D0A43226010BC70472DE956
:1041A000F84FDFF8900CDFF8901C08600320FFF751
:1041B000E5FF01F0A6FB01F095F901F079FA01F0B5
:1041C000AFF901F099FA01F021FB01F04EFA002558
:1041D0000626DFF868AC9AF80000002840D000F00E
:1041E00039FE00F006FE0020DFF8541C08700020A5
:1041F0008AF800000020DFF84C1C08700020DFF86F
:10420000E01C08700020DFF8401C08700020DFF878
:104210003C1C08700020DFF8381C08700020DFF814
:10422000C41C08700020DFF8C01C08700020DFF8F4
:10423000BC1C08700020DFF8B81C08700020DFF8F4
:10424000B41C08700020DFF8B01C08700020DFF8F4
:10425000AC1C08600020DFF8A81C086000F0AFBDAF
:10426000DFF8DC1B0878002800F00B81DFF8942CC5
:104270000020107000208146B9F1030F80F0CF803C
:1042800000208046B8F1020F80F0C680DFF8783C4D
:1042900003EB490010F80800002840F0B18001202D
:1042A00003EB490303F808000020DFF8603C03EB50
:1042B000490303F808000020DFF8843D03EB4903BD
:1042C00003F808000220DFF8483C03EB490303F839
:1042D0000800087802280ED1002007003800C0B27C
:1042E000642808D2DFF82C0C0378012BF6D17F1C50
:1042F00000230370F2E7DFF8200C00EB490313F80A
:104300000830012B1ED1DFF8140CDFF8143C5FEAF3
:10431000491C84445FEA081E91F800A003EB4A0A96
:104320001AF802AC0CF80EA05FEA491C60445FEA80
:10433000081C604491F800C003EB4C0313F8013CE7
:10434000437066E000EB490313F80830022B1ED1DE
:10435000DFF8D00BDFF8C43B5FEA491C9C445FEAFE
:10436000081E91F800A000EB4A0A1AF802AC0CF8FB
:104370000EA05FEA491C63445FEA081C634491F89D
:1043800000C000EB4C0010F8010C587041E000EB4D
:10439000490010F8080003281ED1DFF88C0BDFF865
:1043A0007C3B5FEA491C9C445FEA081E91F800A030
:1043B00000EB4A0A1AF802AC0CF80EA05FEA491C9E
:1043C00063445FEA081C634491F800C000EB4C00B2
:1043D00010F8010C58701CE0DFF8400B5FEA49133D
:1043E00003445FEA081C5FF0000E03F80CE05FEA8C
:1043F000491318445FEA081318440023437008E087
:1044000003EB490010F80800032802D11078401C83
:10441000107018F1010835E719F101092CE710783F
:10442000B04240F0CC8400208146B9F1030F11D294
:1044300000208046B8F1020F09D20020DFF8C82A18
:1044400002EB490202F8080018F10108F2E719F13D
:104450000109EAE70878401C087008780828C0F2CB
:10446000AE84002008700120DFF8C01A0870DFF861
:10447000D40C01F027F80020DFF8981A087000F03B
:104480009EBCDFF8A82A1078002800F0E1801078A0
:1044900001280AD1DFF87C1A0878002805D000200E
:1044A00008700220107000F08ABC1078022840F0DA
:1044B0008684DFF8600A0078002800F08084DFF846
:1044C000441A0020087000208146B9F1030F80F0E3
:1044D0009B8000208046B8F1020F80F09280DFF8C8
:1044E000283A03EB490010F8080000287DD101208C
:1044F00003EB490303F808000020DFF8103A03EB50
:10450000490303F808000020DFF8343B03EB4903BC
:1045100003F808000220DFF8F83903EB490303F839
:104520000800DFF8F40900EB490313F80830012B09
:1045300013D1DFF8E8095FEA491303445FEA081C76
:104540005FF01D0E03F80CE05FEA491318445FEAC0
:10455000081318440823437050E000EB490313F894
:104560000830022B13D1DFF8B4095FEA4913034482
:104570005FEA081C5FF0500E03F80CE05FEA491395
:1045800018445FEA081318440023437036E000EB38
:10459000490010F80800032813D1DFF880095FEA0A
:1045A000491303445FEA081C5FF0500E03F80CE067
:1045B0005FEA491318445FEA081318446323437001
:1045C0001CE0DFF858095FEA491303445FEA081C5E
:1045D0005FF0000E03F80CE05FEA491318445FEA4D
:1045E000081318440023437008E003EB490010F857
:1045F0000800032802D10878401C087018F101084F
:1046000069E719F1010960E70878B04240F0D78303
:1046100000200500002010700120DFF8FC188871D0
:1046200000208146B9F1030F80F0C9830020804645
:10463000B8F1020F09D20020DFF8CC1801EB4901D4
:1046400001F8080018F10108F2E719F10109E9E79A
:10465000DFF8F4A79AF80000002809D000F0FAFB70
:104660000020DFF8E017087000208AF80000A6E3B9
:10467000DFF8D0A79AF80000002823D0DFF89428AC
:10468000107800281ED0002010700120DFF8301BA9
:1046900008700021002000F057FD0121002000F0EB
:1046A00053FD0021012000F04FFD0121012000F009
:1046B0004BFD0021022000F047FD0121022000F007
:1046C00043FD7CE3DFF8F82A1078002822D0002090
:1046D0001070DFF8F00A0178032902DA0178491C2A
:1046E00001700021002000F073FD0121002000F086
:1046F0006FFD0021012000F06BFD0121012000F081
:1047000067FD0021022000F063FD0121022000F07E
:104710005FFD54E39AF80000002840F05083DFF872
:10472000C0B79BF80000002800F0A78000F092FBC3
:1047300000208BF8000001208AF800000020DFF83C
:10474000841A08700020DFF8801A08800020DFF843
:104750007C1A08800020DFF8A41708600020DFF82A
:10476000A017086000208146B9F1030F80F0808017
:1047700000208046B8F1020F77D201200400102CEF
:1047800019DADFF898075FEA491108445FEA08116F
:104790000844002101550020DFF8A41801EB49016D
:1047A00001F808000020DFF8641701EB490101F867
:1047B0000800641CE3E7DFF8600700EB490111F82B
:1047C0000810012910D1DFF854075FEA49110844A5
:1047D0005FEA0811BB2242540720DFF8341701EBCF
:1047E000490101F808003DE000EB490111F808100B
:1047F000022910D1DFF824075FEA491108445FEA73
:104800000811112242540A20DFF8041701EB490174
:1048100001F8080026E000EB490010F80800032822
:1048200010D1DFF8F8065FEA491108445FEA081181
:104830009F2242540720DFF8D81601EB490101F806
:1048400008000FE0DFF8D4065FEA491108445FEA88
:104850000811002242540720DFF8B41601EB490189
:1048600001F8080018F1010884E719F101097BE754
:104870000020DFF8A0160870A1E2DFF86C2610789F
:10488000002800F0B080DFF88036DFF858C69CF8CA
:104890000000400803EB40009CF800E01EF0010E11
:1048A00010F80E00002840F09E809CF800004008A0
:1048B00081469CF8000010F001008046012003EBC7
:1048C000490101F808000020DFF8401601EB49011A
:1048D00001F808000020DFF8681701EB490101F832
:1048E00008000220DFF8281601EB490101F8080052
:1048F000DFF8240600EB490111F80810012918D14E
:10490000DFF818065FEA491101445FEA08135FF017
:104910001C0C01F803C05FEA491108445FEA081162
:104920000844DFF8F01B1378194411F8011C41709A
:1049300052E000EB490111F80810022918D1DFF804
:10494000DC055FEA491101445FEA08135FF0580C87
:1049500001F803C05FEA491108445FEA08110844FE
:10496000DFF8B41B1378194411F8011C417033E0CF
:1049700000EB490010F8080003281AD1DFF89C0565
:104980005FEA491101445FEA08135FF0500C01F837
:1049900003C05FEA491108445FEA08110844DFF8E0
:1049A0007C1B1378194411F8011C51F0030141706C
:1049B00012E0DFF868055FEA491101445FEA081375
:1049C0005FF0000C01F803C05FEA491108445FEA98
:1049D00008110844002141700120DFF8101508700B
:1049E00000201070EBE1DFF80425107800281ED0BD
:1049F000DFF81405DFF8EC3493F800C05FEA5C0CD4
:104A000000EB4C0C93F800E01EF0010E1CF80EC0F9
:104A1000BCF1030F0BD1002111701978490800EB8C
:104A20004100197811F0010100224254C7E1DFF87A
:104A3000C0A49AF8000000281DD09AF800000128B0
:104A400004D1DFF8000700F03DFD10E09AF8000007
:104A5000022804D14EF6602000F034FD07E09AF8F9
:104A60000000032803D147F2305000F02BFD002056
:104A70008AF80000A3E1DFF8A024D079012840F0F3
:104A80008B8028004008814615F001008046DFF841
:104A9000781401EB490010F8080000282BD1012000
:104AA00001EB490101F808000020DFF8601401EB78
:104AB000490101F808000020DFF8841501EB4901E5
:104AC00001F80800DFF854045FEA491101445FEA85
:104AD0000812F5238B545FEA491108445FEA081174
:104AE0000844002141700220DFF8241401EB490141
:104AF00001F8080063E101EB490010F80800032801
:104B000040F05D81DFF8280D5FEA491318445FEA41
:104B100008131844407810F0F800702817D102EB01
:104B2000490010F80800012801D000209071DFF83A
:104B3000C40303785FF0010C1CFA05FC5CEA030374
:104B40000370012002EB490303F8080014E002EBB4
:104B5000490010F8080001280ED1DFF89803037807
:104B60005FF0010C1CFA05FC33EA0C030370002013
:104B700002EB490303F80800002001EB490101F8AA
:104B800008006D1CB54240F01A810220D07195FBDF
:104B9000F6F006FB105512E1D079022840F0838030
:104BA00028004008814615F001008046D64901EBF7
:104BB000490010F80800002828D1012001EB490124
:104BC00001F808000020D14901EB490101F8080073
:104BD0000020DFF86C1401EB490101F80800CF4810
:104BE0005FEA491101445FEA081205238B545FEA2A
:104BF000491108445FEA081108440021417002206D
:104C0000C34901EB490101F80800D8E001EB490074
:104C100010F80800032840F0D280DFF8140C5FEA97
:104C2000491318445FEA081318444078ED2816D158
:104C300002EB490010F80800022801D00020907112
:104C4000AC4803785FF0010C1CFA05FC5CEA030336
:104C50000370022002EB490303F8080013E002EBA3
:104C6000490010F8080002280DD1A24803785FF02F
:104C7000010C1CFA05FC33EA0C030370002002EB64
:104C8000490303F80800002001EB490101F808007E
:104C90006D1CB54240F093800320D07195FBF6F077
:104CA00006FB10558BE0D079032840F0888028005F
:104CB0004008814615F001008046934B03EB490004
:104CC00010F80800002827D1012003EB490101F862
:104CD000080000208D4901EB490101F8080000207F
:104CE000D74901EB490101F808008C485FEA4911F6
:104CF00001445FEA0812F5238B545FEA4911084426
:104D00005FEA08110844002141700220804901EB4C
:104D1000490101F8080052E003EB490010F80800CF
:104D200003284CD1DFF8080B5FEA491C60445FEAB6
:104D3000081C60444078422818D102EB490010F862
:104D40000800032801D0002090716A4890F800C044
:104D50005FF0010E1EFA05FE5EEA0C0C80F800C042
:104D6000032002EB490C0CF8080015E002EB4900A7
:104D700010F8080003280FD15E4890F800C05FF0DB
:104D8000010E1EFA05FE3CEA0E0C80F800C0002061
:104D900002EB490C0CF80800002003EB490303F870
:104DA00008006D1CB5420AD19079002801D101207C
:104DB00008700120D07195FBF6F006FB105500211C
:104DC000002000F0B5F80121002000F0B1F800212A
:104DD000012000F0ADF80121012000F0A9F8002128
:104DE000022000F0A5F80121022000F0A1F8FFF751
:104DF000F0B930B4484A0120D071002090710020F1
:104E00000300DBB2032B11D2002319000B00DBB22D
:104E1000022B09D20300DBB202EB43030C00E4B225
:104E200000251D55491CF1E7401CE9E730BC7047DF
:104E30000CED00E00040000808ED00E080000020DC
:104E4000920901208F090120910901209409012074
:104E50009509012070B50025032D3ED2DFF8D469F5
:104E6000802156F8250000F0B5FE0128F6D001217A
:104E700056F8250000F0AEFE012802D156F82500B4
:104E800080890020DFF8B019485500200400022C6A
:104E900021D2DFF8A80900EB850030F81400DFF814
:104EA000A01951F8251008610020184901EB4501AF
:104EB00008550020DFF88C1901EB4501085500204A
:104EC000134901EB4501085500200F4901EB45014D
:104ED0000855641CDBE76D1CBEE770BD0000FA05D9
:104EE00090090120960901209709012098090120C5
:104EF0009A0901209C0901209D09012074090120C3
:104F0000780901209B090120440901204C09012056
:104F10005C0901208D090120640901208408012019
:104F20000000002010000020200000209309012034
:104F30002DE9F84304000D00DFF80C69404F200014
:104F4000C0B207EB40002900C9B2405C2100C9B2E1
:104F500006EB41012A00D2B2895C88426CD2DFF8AC
:104F6000EC882000C0B208EB40002900C9B2405CC8
:104F7000022861D1DFF8BC9801212000C0B259F8A5
:104F8000200000F027FE012856D12000C0B207EB18
:104F900040002900C9B22200D2B207EB42022B0026
:104FA000DBB2D25C521C42542000C0B207EB40007E
:104FB0002900C9B2405C2100C9B206EB41012A00B8
:104FC000D2B2895C88421ED1DFF870082100C9B2D4
:104FD00000EB81002900C9B230F81100DFF8601839
:104FE0002200D2B251F8221008610020DFF84818E0
:104FF0002200D2B288542000C0B208EB4000290041
:10500000C9B203224254DFF828082100C9B249017D
:1050100008442900C9B2090108442100C9B207EBBC
:1050200041012A00D2B2895C08442100C9B259F872
:105030002110898900F8011CDFF8FC7702E000BF2D
:10504000540901202000C0B2385C00280AD1DFF8E2
:10505000FC072100C9B200EB41002900C9B2405C45
:1050600001280AD0DFF8E4072100C9B200EB4100B3
:105070002900C9B2405C022861D1DFF8B88702215B
:105080002000C0B258F8200000F0A4FD012856D13D
:10509000DFF8BC072100C9B200EB41012A00D2B2FF
:1050A000895C2200D2B206EB42022B00DBB2D25C5A
:1050B000914244D2DFF884172200D2B201EB820180
:1050C0002A00D2B231F81210DFF874272300DBB2C5
:1050D00052F823205161DFF87C172200D2B252012E
:1050E00011442A00D2B2120111442200D2B200EBC4
:1050F00042022B00DBB2D25C895C2200D2B258F8AB
:10510000222091812100C9B200EB41012A00D2B2D4
:105110002300DBB200EB43002B00DBB2C05C401C81
:10512000885401202100C9B27854DFF820072100FB
:10513000C9B200EB41002900C9B202224254BDE8C5
:10514000F183000080A9030010B4DFF80C270300EE
:10515000DBB202EB83020B00DBB232F81320DFF884
:10516000FC361B781A4228D0DFF8F4261278002A81
:1051700023D0DFF8DC260300DBB202EB43020B0096
:10518000DBB20024D454DFF8BC260300DBB202EB10
:1051900043020B00DBB20024D4540022DFF898361F
:1051A0000400E4B21A55DFF8A4260300DBB202EBD8
:1051B00043020B00DBB20124D45410BC7047000042
:1051C0008E09012099090120840901208609012006
:1051D0002DE9F84785B004000D00DFF87C062100BA
:1051E000C9B200EB81002900C9B230F81100DFF824
:1051F0006C160978084200F06281DFF864160878BE
:10520000002800F05C81DFF85C0600780328C0F21B
:105210005681DFF85426DFF85436DFF854E6DEF81E
:1052200000C01868BCEB000CC2F800C01068002871
:1052300007D5D2F800C07FF0004010EB0C0CC2F88C
:1052400000C0DFF83006A4465FFA8CFC00EB4C0C83
:10525000A8465FFA88F81CF808C0BCF1010F0DD011
:10526000A4465FFA8CFC00EB4C0CA8465FFA88F869
:105270001CF808C0BCF1030F40F0BB80DFF8B0059C
:10528000A4465FFA8CFC5FEA4C1C8444A8465FFA93
:1052900088F85FEA0818C4449CF801C0A0465FFA89
:1052A00088F85FEA48188044A9465FFA89F95FEAFE
:1052B0000919C84498F8028058EA0C28ADF8008013
:1052C000EC46A0465FFA88F85FEA48188044A94691
:1052D0005FFA89F95FEA0919C84498F80380A14682
:1052E0005FFA89F95FEA49198144AA465FFA8AFAA6
:1052F0005FEA0A1AD14499F8049059EA0829ACF8EF
:105300000290A0465FFA88F85FEA48188044A946F0
:105310005FFA89F95FEA0919C84498F80580A1463F
:105320005FFA89F95FEA49194844A9465FFA89F9A1
:105330005FEA09194844807950EA0820ACF8040073
:1053400000200600F6B2032E18D202AE80465FFAA5
:1053500088F83CF9188081465FFA89F946F8298077
:1053600080465FFA88F856F828805FEA0818814678
:105370005FFA89F946F82980401CE2E7DFF8F8C4B3
:105380000126CCF8006000263000C0B203287DD290
:1053900010200700380040B2002828D41068B0F56B
:1053A000803F22DADFF8D4040DF10808B1465FFA35
:1053B00089F958F8298058FA07F8DFF8C494B0F84A
:1053C00000A009F80A80B0F8008018F10108A0F8E0
:1053D0000080B0F80080A0F800801068401C1060C9
:1053E000DCF80000401CCCF80000083FD2E7761C37
:1053F000CAE7A4465FFA8CFC00EB4C00AC465FFAAF
:105400008CFC10F80C00022840D1DFF86C045FF02F
:10541000010CC0F800C0D0F800C0BCF10A0F35D2B2
:10542000D2F800C0BCF5803F29DADFF850C4DFF8BD
:105430000084A1465FFA89F95FEA4919C844A94680
:105440005FFA89F95FEA0919C844D0F8009018F8A2
:105450000980DFF82C94BCF800A009F80A80BCF899
:10546000008018F10108ACF80080BCF80080ACF8AE
:105470000080D2F800C01CF1010CC2F800C0D0F8C6
:1054800000C01CF1010CC0F800C0C4E7DEF800C089
:10549000DFF8E403006810EB0C0CBCF1010CCEF853
:1054A00000C01068B0F5803F09DB186800F57F4048
:1054B000FF30CEF8000000200870FFF7CBFC06B0EC
:1054C000BDE8F087DFF8BC130A68520852000A6092
:1054D00020F07F42DFF8B0331A600A6852F0010210
:1054E0000A60704780B5012141F20D0000F07AFB9F
:1054F0000121E64800F084FB01215FF0007000F01C
:1055000018FC0121E24800F014FC0121E14800F000
:1055100010FC01BD54000020580000205C00002059
:1055200038B51020ADF8000048208DF803000220A7
:105530008DF80200D84D6946280000F085FBA020B8
:10554000ADF8000001208DF8020028208DF803003E
:105550006946280000F078FB4020ADF800001820D4
:105560008DF803006946280000F06EFB4FF42040E0
:10557000ADF8000001208DF8020018208DF803001E
:10558000C64D6946280000F05FFB4FF4C050ADF8EF
:10559000000010208DF803006946280000F054FB3D
:1055A0004FF48040ADF8000028208DF803006946D4
:1055B000280000F049FB2820ADF8000001208DF8FC
:1055C000020018208DF803006946280000F03CFB1B
:1055D0000320ADF8000010208DF803006946280074
:1055E00000F032FB1020ADF8000028208DF80300F9
:1055F0006946280000F028FB4FF42070ADF8000049
:1056000001208DF8020018208DF80300694628005B
:1056100000F01AFB4FF48860ADF8000010208DF800
:1056200003006946280000F00FFB4FF48070ADF8CE
:10563000000028208DF803006946280000F004FBD4
:105640000020032810D200210C00022C0AD27B4932
:1056500001EB800131F81410794A52F820201161D1
:10566000641CF2E7401CECE731BDE0B504210020EA
:1056700000F0F3FD1020019000208DF808000820B4
:105680008DF8090001208DF80A0001A800F034FE11
:105690000A208DF8000001208DF8010001208DF80E
:1056A000020001208DF80300684600F088FE07BD67
:1056B00080B54FF4A06000F07DFE23208DF800003F
:1056C00000208DF8010000208DF8020001208DF8E7
:1056D0000300684600F073FE1C208DF800000320D4
:1056E0008DF8010007208DF8020001208DF80300DD
:1056F000684600F064FE01BD78B585B0684600F0EC
:1057000031FA0020ADF800000020ADF804000020C0
:10571000ADF806000020ADF808004FF40070ADF8B9
:105720000A000020ADF80E004FF48270ADF80200C0
:105730003020ADF80C000720ADF81000584C694639
:10574000200000F0E1F9574D6946280000F0DCF92F
:1057500069465FF0402000F0D7F90020ADF8020064
:105760000020ADF80A00504E6946300000F0CCF938
:1057700001226021300000F017FA0121300000F012
:1057800004FA0121200000F000FA0121280000F0B5
:10579000FCF901215FF0402000F0F7F906B070BD80
:1057A00018B585B0414C4FF480502060684600F039
:1057B000D9F90020ADF800000020ADF80400002069
:1057C000ADF806000020ADF808000020ADF80A0092
:1057D0000020ADF80E000020ADF802003820ADF832
:1057E0000C000720ADF81000002020602E4C694608
:1057F000200000F089F901226021200000F0D4F996
:105800000121200000F0C1F906B010BD1D4801685B
:1058100051F00401016026491B4A1160016851F0F2
:1058200002010160016851F0010101607047000050
:10583000E408012048000020800901203C000020ED
:1058400030000020540901205C0901204409012096
:105850004C09012084080120600000209D090120DE
:105860008F090120990901207C0901207809012074
:1058700074090120640901207009012086090120B2
:105880008400002010E000E014E000E001C001000E
:10589000620100807301008000080140000C01409B
:1058A00000380040003C0040003001400C10024035
:1058B00080A9030080B58249086850F001000860A3
:1058C000804A13688048034013600B687F48034098
:1058D0000B60086830F48020086011687C48014043
:1058E00011607C490A687C4802400A605FF41F002E
:1058F0007A49086000F086F85FF000607849086037
:1059000001BDF0B4002600210020002200236D4DCF
:105910002C6814F00C042700002F04D0042F12D0A0
:10592000082F14D060E06B4E3668B60107D56D4E77
:105930003668B60503D56C4E6C4F3E6002E06C4E87
:105940006A4F3E6053E06A4E684F3E604FE02E68FB
:1059500016F4803630002E68320012F0C04F06D1A7
:1059600012F47011B1F5701F01D0022100E0012185
:10597000C2F3834617007F0E17F030073E438E199F
:105980002F685C490F4017F0C04F06D117F4701113
:10599000B1F5701F01D0022600E00126C7F3834154
:1059A0007F0E17F0300739437118002805D1524E89
:1059B00006FB01F64D4F3E6015E02E68B6030DD58F
:1059C000484E366816F44056360B3300484E9F1C3E
:1059D000B6FBF7F64E43454F3E6004E0444E06FBEF
:1059E00001F6424F3E6002E0414E404F3E602D685E
:1059F000424EC5F30315755D3C4E3768EF40376086
:105A0000F0BC704780B500F001F801BD1CB5002066
:105A10000190002000902A49086850F48030086006
:105A2000086810F4003000900198401C0190009824
:105A3000002803D10198B0F5405FF1D108688003D8
:105A400002D50120009001E000200090009801287C
:105A500034D11C4C20682060206830F460502060F5
:105A6000206850F400502060206830F4E06020602E
:105A7000206850F480602060226821480240226043
:105A80002268204802432260086850F08070086055
:105A900008688001FCD5012000F0C0F8206880086B
:105AA00080002060206850F002002060206810F024
:105AB0000C000828FAD1002000F0B0F813BD000057
:105AC00000100240041002400C00FFE8FFFFF6FE49
:105AD000FFFF00173010024000FFFEFE08100240DA
:105AE00008ED00E054100240006CDC026C00002065
:105AF00000127A0000003C6000093D0070000020A8
:105B0000FFFFC01F000035A010B40022038813F46B
:105B100041538C89240404D5828852F48072828097
:105B200004E084884FF6FF62144084800C884A8821
:105B300014438A881443CA8814430A8914434A893F
:105B400014438A895204520C1443CA8914432343D0
:105B50000380848B4FF2FF72144084830A8A02828E
:105B600010BC70470021018000214180002181800C
:105B70000021C1800021018100214181002181811A
:105B80000021C1810721018270470A00D2B2002A98
:105B900004D0028852F04002028004E003884FF6ED
:105BA000BF72134003807047F0B4002600240F003A
:105BB000FFB23F09FFB20125BD401300DBB2002B4D
:105BC00003D083882B43838002E08388AB438380A8
:105BD000F0BC704702001089084201D0012000E0AB
:105BE000002070470A00D2B2002A04D0144A136879
:105BF0000343136003E0124A136883431360704742
:105C00000A00D2B2002A04D00E4A1368034313607C
:105C100003E00C4A13688343136070470100C9B264
:105C2000012905D105490A6852F030020A6004E0F2
:105C300002490A6832F030020A607047541002408C
:105C4000181002401C100240F0B50022002300246E
:105C500000250026002791F803C01CF00F0C91F8D6
:105C600003E05FEACE6E02D58A7852EA0C0C0A781D
:105C700012062AD00268160000221400082C23D233
:105C80005FF0010E1EFA04F215000A882A40130084
:105C9000AB4217D1A20015000F22AA401700BE4345
:105CA0001CFA05F21643CA78282A04D11EFA04FE0B
:105CB000C0F814E006E0CA78482A03D11EFA04FEB0
:105CC000C0F810E0641CD9E706600A88B2F5807F4E
:105CD0002EDB4268160000221400082C27D25FF049
:105CE000010E14F108021EFA02F215000A882A4079
:105CF0001300AB4219D1A20015000F22AA401700D1
:105D0000BE431CFA05F21643CA78282A04D114F1BE
:105D100008021EFA02F24261CA78482A05D114F13B
:105D200008021EFA02FEC0F810E0641CD5E74660C7
:105D3000F0BDF0B40200DFF874058242C0F0838049
:105D400000275FF0000C22F000452C00E40915F05C
:105D50007F052800000915F00F050600F6B2B60011
:105D600015FA06F6002C08D0022C0ED009D3042C0C
:105D700013D00ED3052C14D017E0DFF834753B0098
:105D800013E0DFF830753B000FE0DFF82C753B00C7
:105D90000BE0DFF828753B0007E0DFF824753B00D7
:105DA00003E0DFF820753B00FFE7002804D11F68FF
:105DB0003F093F011F603DE0012812D1012C0BD1AA
:105DC000052D04D31F6837F0C0071F6032E01F683D
:105DD00037F030071F602DE01F6837F0F0071F60B5
:105DE00028E0022804D11F6837F470671F6021E0A3
:105DF000032804D11F6837F470471F601AE0042895
:105E000004D11F6837F470271F6013E0052804D100
:105E10001F6837F470071F600CE0062804D11F6864
:105E200037F070671F6005E0072803D11F6827F06F
:105E300070471F600F00FFB2012F40F00C821F68F7
:105E40003E431E6007E21000012800F0A0800228F7
:105E500000F09080042800F08D80082800F08A80EF
:105E6000102800F0A480302800F0B080402800F016
:105E7000BC80C02800F0C780B0F5807F00F0D180E2
:105E8000B0F5007F00F0DB80B0F5407F00F0E580EA
:105E9000B0F5006F00F0EF80B0F5406F00F0F980D2
:105EA000B0F5805F66D0B0F5804F00F00081B0F5AE
:105EB000C04F00F00A81B0F5004F5BD0B0F5803FD5
:105EC00058D0B0F5003F55D0B0F5802F52D0B0F586
:105ED000002F4FD0B0F5801F4CD0B0F5001F00F060
:105EE0007281B0F5800F00F06081B0F5000F00F016
:105EF0004E81B0F1807F00F0F680B0F1007F00F0BD
:105F00000081B0F1806F00F00A81B0F1805F00F095
:105F10003081B0F1005F00F01E81B0F1804F00F0E1
:105F20000C81DFF8A433984200F05B81DFF89C33EA
:105F3000984200F05681DFF89833984200F0518182
:105F4000DFF89033984200F04C81DFF88C339842B0
:105F500000F05781DFF88433984200F06081DFF869
:105F60008033984200F06981DFF87833984200F07E
:105F7000388170E1DFF870030368934303600B001E
:105F8000DBB2012B02D103681343036063E1DFF846
:105F900058331C68DFF8540304401C600800C0B28A
:105FA000012803D1186850F00100186053E1DFF8B0
:105FB0003803036833F0300303600B00DBB2012BBE
:105FC00003D1036853F01003036044E1DFF81803C2
:105FD000036833F0300303600B00DBB2012B03D105
:105FE000036853F03003036035E1BF48036833F0C2
:105FF000C00303600B00DBB2012B03D1036853F035
:106000004003036027E1B848036833F0C00303602E
:106010000B00DBB2012B03D1036853F0C003036014
:1060200019E1B148036833F4407303600B00DBB23D
:10603000012B03D1036853F4807303600BE1AA487A
:10604000036833F4407303600B00DBB2012B03D110
:10605000036853F400730360FDE0A348036833F45E
:10606000407303600B00DBB2012B03D1036853F4D0
:1060700040730360EFE09C48036833F440630360BF
:106080000B00DBB2012B03D1036853F40063036000
:10609000E1E09548036833F4406303600B00DBB232
:1060A000012B03D1036853F440630360D3E08E48AF
:1060B000036833F4C04303600B00DBB2012B03D150
:1060C000036853F480430360C5E08748036833F4F2
:1060D000C04303600B00DBB2012B03D1036853F410
:1060E000C0430360B7E08048036833F0E0630360B7
:1060F0000B00DBB2012B03D1036853F08073036004
:10610000A9E07948036833F0E06303600B00DBB279
:10611000012B03D1036853F0007303609BE07248C6
:10612000036833F0E06303600B00DBB2012B03D1A3
:10613000036853F0806303608DE06B48036833F0BD
:10614000804303600B00DBB2012B03D1036853F0E3
:10615000804303607FE06448036833F000530360CA
:106160000B00DBB2012B03D1036853F00053036033
:1061700071E05D48036833F0805303600B00DBB2CD
:10618000012B03D1036853F08053036063E056484A
:10619000036833F4000303600B00DBB2012B03D16F
:1061A000036853F40003036055E04F48036833F479
:1061B000800303600B00DBB2012B03D1036853F4AF
:1061C0008003036047E04848036833F4001303602A
:1061D0000B00DBB2012B03D1036853F400130360FF
:1061E00039E0434B1C689002800A84431C6008001D
:1061F000C0B2012804D11C689002800A04431C60CC
:1062000029E03B48036833F4C01303600B00DBB2A2
:10621000012B03D1036853F4002303601BE03448CF
:10622000036833F4C01303600B00DBB2012B03D10E
:10623000036853F4801303600DE02D48036833F4C2
:10624000C01303600B00DBB2012B03D1036853F4CE
:10625000C0130360FFE7F0BC7047F0B400230F22C7
:1062600011F00304E4B2A40012FA04F4214D0A0070
:10627000D2B2921055F82220A2430E00F6B2B61008
:1062800045F826200A00D2B2921055F82260070085
:10629000FFB211F00302D2B2920097403E430A00CF
:1062A000D2B2921045F82260F0BC70470100008025
:1062B0002000014024000140280001402C00014042
:1062C0003000014034000140200000400004004044
:1062D00000000240000004400000084000001040A0
:1062E000000018400000204004000140FEFFFF7F36
:1062F0001C0001400800014070B40023284A14002B
:10630000817900292DD0264B1D6801688D431D60C1
:10631000244B1D6801688D431D60017963181C685A
:1063200001680C431C60204C256801688D43256082
:106330001E4D2E6801688E432E604179102908D1C8
:10634000226801680A4322602A6801680A432A60B9
:106350000DE0417951180B001A6801680A431A6070
:1063600005E0017963181A6801688A431A6070BCF5
:10637000704710B402000023002009490968114049
:106380000B4C2468144203D0002901D0012000E006
:106390000020C0B210BC704705490860704700007B
:1063A0000004014004040140080401400C040140C1
:1063B000140401401B4901431B4A11607047F0B4AB
:1063C000002200230F24C17800291FD01649096834
:1063D00011F4E061D1F5E061090AD1F104052B0067
:1063E000CC4045789D408678264035432D012A00D3
:1063F0000E4D0678AA550125067816F01F06B54001
:106400000B4E07787F1146F8275009E001210578E7
:1064100015F01F05A940074D0678761145F826109E
:10642000F0BC70470000FA050CED00E000E400E06D
:1064300000E100E080E100E0DFF85802DFF85812E8
:106440000160DFF858220260DFF854020160026048
:106450007047DFF85002016851F080010160DFF8F9
:10646000E802016851F080010160704770B50400D6
:106470000426B4F1046F21D35FF0FF3000F044F93B
:1064800005002800C0B2042815D1DFF8AC623068DE
:1064900050F002003060DFF8A4020460306850F071
:1064A000400030605FF0FF3000F02EF905003068EA
:1064B00030F0020030602800C0B249E0DFF880020E
:1064C00084421FD25FF0805000F0EEF806003000EA
:1064D000C0B204283AD1DFF8CC51286850F002004D
:1064E0002860DFF860020460286850F040002860EF
:1064F0005FF0805000F0D8F80600286830F0020005
:10650000286023E0844221D3B4F1016F1ED25FF0F2
:10651000805000F0E1F806003000C0B2042815D128
:10652000DFF82452286850F002002860DFF81C02CF
:106530000460286850F0400028605FF0805000F050
:10654000CBF80600286830F0020028603000C0B2A6
:1065500070BDF8B504000D000426B4F1046F1BD320
:106560004FF4704000F0D0F807003800C0B20428A3
:106570000FD1DFF8C461306850F001003060258031
:106580004FF4704000F0C0F8070030684008400049
:1065900030603800C0B23DE0DFF8A401844219D277
:1065A0004FF4704000F080F806003000C0B20428BC
:1065B0002ED1DFF8F070386850F001003860258087
:1065C0004FF4704000F070F8060038684008400052
:1065D00038601DE084421BD3B4F1016F18D24FF430
:1065E000704000F079F806003000C0B204280FD1E6
:1065F000DFF85471386850F00100386025804FF49E
:10660000704000F069F806003868400840003860C3
:106610003000C0B2F2BD0421DFF83C010268D207AD
:1066200001D501200AE00268520701D5022005E0E9
:106630000068C00601D5032000E00420C0B2704706
:106640000421DFF810010268D20701D501200AE019
:106650000268520701D5022005E00068C00601D596
:10666000032000E00420C0B27047042138480268CB
:10667000D20701D501200AE00268520701D50220A5
:1066800005E00068C00601D5032000E00420C0B288
:10669000704700000420024023016745AB89EFCD1D
:1066A000442002401020024070B504000425FFF78A
:1066B000B2FF06003000C0B2012806D1002C04D081
:1066C000FFF7A9FF0600641EF4E7002C01D10520A6
:1066D00006003000C0B270BD70B504000425FFF79D
:1066E000AFFF06003000C0B2012806D1002C04D054
:1066F000FFF7A6FF0600641EF4E7002C01D1052079
:1067000006003000C0B270BD70B504000425FFF76C
:10671000ACFF06003000C0B2012806D1002C04D026
:10672000FFF7A3FF0600641EF4E7002C01D105204B
:1067300006003000C0B270BD90200240942002409C
:10674000000008081420024050200240542002405B
:106750008C2002404C2002400C20024010B5012148
:10676000A348FFF737FA002800F01581A14BA24A91
:1067700010881870A1490878002825D000201080C2
:106780000878482805D118789D4A107000200870B4
:1067900001E10878582805D118789A4A107000202D
:1067A0000870F8E0087810F0600F0AD0087810F050
:1067B0000F00954A10701878944A107000200870E5
:1067C000E9E000200870E6E0187884281FD190499D
:1067D00090480B88C05C10808F4A904B90480468AA
:1067E0001868241A14601068002804D514687FF013
:1067F0000040041914601068012807DB1868401C69
:1068000018600888401C088008880880C3E0187851
:10681000822818D1804982480368804800681B1A82
:106820000B600868002804D50B687FF00040C3188F
:106830000B607C480B681B1203700078108008689E
:1068400079490870A7E01878832803D17648007842
:106850001080A0E0187885283FD174490878002876
:1068600006D17348007810800878401C087033E027
:106870000878012806D16E48407810800878401CBE
:10688000087029E00878022806D1694880781080CD
:106890000878401C08701FE00878032806D1644877
:1068A000C07810800878401C087015E0087804282B
:1068B00006D15F48007910800878401C08700BE012
:1068C0000878052806D15A48407910800878401C7D
:1068D000087001E0002010805DE01878812803D165
:1068E00054480078108056E01878382805D10020E8
:1068F00010800120504908704DE01878F52802D129
:10690000F120108047E01878F72802D100F074F9E0
:1069100041E01878282805D100201080012047493F
:10692000087038E046480078002802D00020108027
:1069300031E01878F82811DB1878F82802D1012006
:10694000108028E01878F92802D10120108022E078
:106950001878FA2802D1012010801CE00020108055
:106960001878182803D101203649087013E01878E8
:1069700058280DD0187860280AD01878482807D0F1
:10698000187810F0600F03D1187810F0700F02D053
:1069900018780870FFE710BD80B501202A490870FB
:1069A00001215FF0804000F03FF901BD80B510206B
:1069B000FFF7DFFC00280DD080210D48FFF70AF912
:1069C000002801D0FEF7ECFE0020184908701020C6
:1069D000FFF7E2FC01BD7047FEE7FEE7FEE7FEE7DA
:1069E00070477047704701201749087070470000D2
:1069F00000300140880901200C3001408909012044
:106A00009D0901209A09012096090120970901207A
:106A100084090120840000206C09012078090120EC
:106A2000740901208A0901208B0901208C090120A9
:106A3000640901209C0901208000002091090120A7
:106A40008F090120900901208D090120BFF34F8F8C
:106A500070490A6812F4E0626F4802430A60BFF3AB
:106A60004F8F00BFFDE700887047F8B504000D00A8
:106A7000160000273800310080B289B2884209D25E
:106A8000380080B235F810102000FFF762FDA41C1A
:106A90007F1CEFE7F1BD2DE9F84F04000D00160053
:106AA000B4F1006F02D3B4F1016F00D38CE0FFF7B3
:106AB000C3FC14F178400090DDF800805FEAD8282C
:106AC0000098C0F34909D9F5806A5046310080B278
:106AD00089B2884200D3B246DFF840B14FF48062F9
:106AE00059464FF4006000FB08F010F1006000F020
:106AF0006DF8002007003800514680B289B2884204
:106B00000BD2380080B210FA89F03BF810004FF633
:106B1000FF71884201D17F1CEDE73800514680B2F9
:106B200089B2884227D24FF4006000FB08F010F1D0
:106B30000060FFF79BFC002007003800514680B240
:106B400089B288420BD2484680B210FA87F03900E9
:106B500089B235F811102BF810107F1CEDE74FF4B7
:106B6000806259464FF4006000FB08F010F10060AD
:106B7000FFF77BFF05E0524692B229002000FFF7A5
:106B800074FF3000514680B289B2884202D1FFF7CB
:106B900060FC19E018F1010800208146504680B2DF
:106BA00005EB4005504680B214EB4004B6EB0A06F4
:106BB000300080B240F20141884203DB4FF4806034
:106BC000824689E7B24687E7BDE8F18FF8B5040051
:106BD0000D00160000273800310080B289B28842CB
:106BE00009D22000FFF73FFF390089B225F81100D4
:106BF000A41C7F1CEFE7F1BD1CB5684608490A6874
:106C00000260084C022269462000FFF744FFFFF7AC
:106C10001DFF13BD0CED00E00400FA058400012007
:106C2000D86D0008003800080A0092B2D2430282F0
:106C300070470EE002684368024408305FEAC37C94
:106C400044BF4B445B1E52F804CB43F804CB091FEE
:106C5000F9D150F8041B0029ECD170476B806B010F
:106C60006C07380023006B00240000005E525600C1
:106C700058015400520150005A0000001101520105
:106C800013051400506316004E030000000C014071
:106C9000000C0140000C014000100008010002003F
:106CA0000004400000380040003C0040004000402C
:106CB00000081018010203036040200001000200D8
:106CC0000400080010002000001C4E0E0000000010
:106CD000000000000102030406070809010000008B
:106CE00030B4002512E050F8042BD30744BF4A44C7
:106CF000521E091F042942F8045BFAD213468C077E
:106D000044BF15809B1CC90748BF1D7050F8041B69
:106D10000029E8D130BC704710B5074979441831D3
:106D2000064C7C44163404E00A68081D1144884768
:106D30000146A142F8D110BD080000002800000063
:106D4000A1FFFFFF1C0901008400002000000000DB
:106D5000E3FEFFFF8400000004FFFFFF00000020AF
:106D60000000000000F00DF8002801D0FFF7D4FF6C
:106D7000AFF300800020AFF30080FDF710FA00F0C1
:106D800002F80120704700F001B8000007463846BD
:106D900000F002F8FBE7000080B5AFF30080024A84
:106DA00011001820ABBEFBE7260002000548014693
:106DB00003B4684680F30988AFF30080AFF3008026
:106DC000FFF7D0FFA5EDF5FE0148804701480047D9
:106DD000B5580008AD6D000822221484FFF7FEBFED
:106DE000FFF7FEBFFFF7FEBFFFF7FEBFFFF7FEBFD7
:106DF000FFF7FEBFFFF7FEBFFFF7FEBFFFF7FEBFC7
:106E0000FFF7FEBFFFF7FEBFFFF7FEBFFFF7FEBFB6
:106E1000FFF7FEBFFFF7FEBFFFF7FEBFFFF7FEBFA6
:106E2000FFF7FEBFFFF7FEBFFFF7FEBFFFF7FEBF96
:106E3000FFF7FEBFFFF7FEBFFFF7FEBFFFF7FEBF86
:106E4000FFF7FEBFFFF7FEBFFFF7FEBFFFF7FEBF76
:106E5000FFF7FEBFFFF7FEBFFFF7FEBFFFF7FEBF66
:106E6000FFF7FEBFFFF7FEBFFFF7FEBFFFF7FEBF56
:106E7000FFF7FEBFFFF7FEBFFFF7FEBFFFF7FEBF46
:106E8000FFF7FEBFFFF7FEBFFFF7FEBFFFF7FEBF36
:106E9000FFF7FEBFFFF7FEBFFFF7FEBFFFF7FEBF26
:106EA000FFF7FEBFFFF7FEBFFFF7FEBFFFF7FEBF16
:106EB000FFF7FEBFFFF7FEBFFFF7FEBFFFF7FEBF06
:106EC000FFF7FEBFFFF7FEBFFFF7FEBFFFF7FEBFF6
:106ED000FFF7FEBFFFF7FEBFFFF7FEBFFFF7FEBFE6
:106EE000FFF7FEBFFFF7FEBFFFF7FEBFFFF7FEBFD6
:0C6EF000FFF7FEBFFFF7FEBFFFF7FEBF7D
:0400000508006DADD5
:00000001FF
